:100000000C94C3000C94EB000C94EB000C94EB00EC
:100010000C94EB000C94EB000C94EB000C94EB00B4
:100020000C94EB000C94EB000C94EB000C94EB00A4
:100030000C94EB000C94EB000C94EB000C94EB0094
:100040000C94F6040C94EB000C9466050C9440059B
:100050000C94EB000C94EB000C94EB000C94EB0074
:100060000C94EB000C94EB000C94EB000C94EB0064
:100070000C94EB000C94EB000C94EB000C94EB0054
:100080000C94EB000C94EB000C94EB000C94EB0044
:100090000C94EB000C94EB000C94EB000C94EB0034
:1000A0000C94EB000C94EB000C94EB000C94EB0024
:1000B0000C94EB000A0B0C0D0E0F5472616E736DF5
:1000C000697373696F6E206661696C6564206F7215
:1000D0002074696D6564206F7574002075732E201F
:1000E00053656E743A200054696D6520746F2074F6
:1000F00072616E736D6974203D20005472616E737D
:100100006D697373696F6E2073756363657373666E
:10011000756C2120000A0D0E090003020000040581
:1001200008000000000000000000000000000000C7
:1001300000000000250028002B002E000000000019
:10014000240027002A002D000404040404040404ED
:100150000202020202020303030303030202030575
:100160000505050102040810204080010204081062
:100170002001020408102040804001020408000110
:1001800002030405980511241FBECFEFD8E0DEBF9F
:10019000CDBF11E0A0E0B1E0ECE8F4E102C00590D1
:1001A0000D92A836B107D9F722E0A8E6B1E001C068
:1001B0001D92A037B207E1F710E0C3ECD0E004C015
:1001C0002197FE010E943E0AC23CD107C9F70E9456
:1001D000E9050C94440A0C94000090E0FC01ED59F0
:1001E000FE4F2491885B9E4FFC018491882399F0F7
:1001F00090E0880F991FFC01E45CFE4FA591B4913B
:10020000FC01E05DFE4F859194918FB7F894EC91DD
:10021000E22BEC938FBF0895282F30E0F901EB5EBD
:10022000FE4F9491F901ED59FE4F8491285B3E4FAA
:10023000F9012491222309F42EC09923D9F0925078
:100240009D30C0F4E92FF0E0E85DFE4F0C943E0ACB
:100250006E01720135014C013A013A01500156011B
:100260005A0160013A0164016A01909180009F7710
:1002700090938000E22FF0E0EE0FFF1FE05DFE4F55
:10028000A591B4919FB7F894EC9161112EC080951F
:100290008E238C939FBF0895909180009F7DE8CF1F
:1002A0009091B0009F779093B000E4CF9091B00010
:1002B0009F7DF9CF909190009F7790939000DACF37
:1002C000909190009F7DF9CF9091A0009F7790939F
:1002D000A000D0CF9091A0009F7DF9CF94B59F77DB
:1002E00094BDC8CF94B59F7DFBCF8E2BD2CF682F06
:1002F000809152029091530289130C940C0108953D
:10030000000000008330910528F0880F991F0597A1
:100310000197F1F70895CF93DF93C0E5D2E0682FFE
:100320008B810E940C018A8D9B8DDF91CF910C9463
:10033000800181E00C948B013FB7F8948091AE016D
:100340009091AF01A091B001B091B10126B5A89BE9
:1003500005C02F3F19F00196A11DB11D3FBFBA2F57
:10036000A92F982F8827BC01CD01620F711D811D17
:10037000911D43E0660F771F881F991F4A95D1F79B
:1003800008958F929F92AF92BF92CF92DF92EF9299
:10039000FF924B015C010E949C016B017C010E9459
:1003A0009C016C197D098E099F09683E7340810587
:1003B0009105A8F321E0821A9108A108B10888EEFE
:1003C000C80E83E0D81EE11CF11C81149104A10425
:1003D000B10429F7FF90EF90DF90CF90BF90AF90DE
:1003E0009F908F900895AF92BF92CF92DF92EF923D
:1003F000FF920F931F93CF93DF936C017B018B01CF
:10040000040F151FEB015E01AE18BF08C017D1071E
:1004100059F06991D601ED91FC910190F081E02DA8
:10042000C6010995892B79F7C501DF91CF911F91FD
:100430000F91FF90EF90DF90CF90BF90AF90089515
:10044000FC01538D448D252F30E0842F90E0821BDA
:10045000930B541710F0CF96089501970895FC015F
:10046000918D828D981761F0A28DAE0FBF2FB11DB7
:100470005D968C91928D9F5F9F73928F90E008950F
:100480008FEF9FEF0895FC01918D828D981731F0C9
:10049000828DE80FF11D858D90E008958FEF9FEF1D
:1004A0000895FC01918D228D892F90E0805C9F4FF3
:1004B000821B91098F739927089582EB91E00E9426
:1004C000510221E0892B09F420E0822F0895FC01DC
:1004D000A48DA80FB92FB11DA35ABF4F2C91848DA5
:1004E00090E001968F739927848FA689B7892C9302
:1004F000A089B1898C91837080648C93938D848D55
:10050000981306C00288F389E02D80818F7D808357
:100510000895EF92FF920F931F93CF93DF93EC0117
:1005200081E0888F9B8D8C8D98131AC0E889F9899A
:10053000808185FF15C09FB7F894EE89FF8960839D
:10054000E889F98980818370806480839FBF81E01E
:1005500090E0DF91CF911F910F91FF90EF90089560
:10056000F62E0B8D10E00F5F1F4F0F731127E02E3B
:100570008C8D8E110CC00FB607FCFACFE889F98973
:10058000808185FFF5CFCE010E946702F1CFEB8D10
:10059000EC0FFD2FF11DE35AFF4FF0829FB7F89447
:1005A0000B8FEA89FB8980818062CFCF0F931F93E5
:1005B000CF93DF938C01D0E0C0E0F801EC0FFD1F7A
:1005C0006491662341F082EB91E00E948902892BBD
:1005D00011F02196F2CFCE01DF91CF911F910F91B3
:1005E0000895CF93DF93EC01888D8823B9F0AA8911
:1005F000BB89E889F9898C9185FD03C0808186FDDE
:100600000DC00FB607FCF7CF8C9185FFF2CF80812C
:1006100085FFEDCFCE010E946702E9CFDF91CF9138
:10062000089580E090E0892B29F00E945D028111FD
:100630000E94000080E090E0892B49F080E090E08B
:10064000892B29F00E94000081110C94000008956C
:100650008EBD00000DB407FEFDCF8EB50895CF937B
:10066000CFB7F89480916801811124C0E2E5F1E0F0
:100670008491EDE6F1E09491E82FF0E0EE0FFF1F9A
:10068000E45CFE4FA591B491EC91E92321F461E083
:100690008AE00E940C018AE00E94ED008CB5806126
:1006A0008CBD8CB580648CBD8DE00E94ED008BE02C
:1006B0000E94ED00809168018F5F80936801CFBF39
:1006C000CF910895FC0101900020E9F73197AF0127
:1006D000481B590BBC0182EB91E00C94F3018F9203
:1006E0009F92AF92BF920F931F93CF93DF93CDB79B
:1006F000DEB7A1970FB6F894DEBF0FBECDBF19A22B
:10070000423008F44AE08E010F5D1F4F842E912C79
:10071000B12CA12CA50194010E94CB09E62FB901AF
:10072000CA01EA30F4F4E05DD801EE938D01232B89
:10073000242B252B79F790E080E0109719F0CD015C
:100740000E946203A1960FB6F894DEBF0FBECDBF24
:10075000DF91CF911F910F91BF90AF909F908F909D
:100760000895E95CE1CFCF93DF930E946203EC012F
:1007700088E191E00E9462038C0F9D1FDF91CF9171
:1007800008950F931F9300915402109155022091E8
:1007900056023091570240E059E06DE370E080E08E
:1007A000041715072607370740F476956795579580
:1007B00047958F5F8630A1F787E0982F906A9695CE
:1007C000809581709CBD8DBD80E01F910F910C9430
:1007D0008B01CF93DF93D82FC62F0E94C1038D2F9B
:1007E00080620E942803809358028C2F0E94280365
:1007F000DF91CF910C94990160915F0261FD0AC075
:10080000626060935F0280E00E94E90388E893E100
:100810000C9480010895CF93C82F0E94C1038C2FA0
:100820000E942803809358028FEF0E942803C82F4C
:100830000E9499018C2FCF910895CF93DF93EC0103
:1008400086E00E940B04877DC230D105E1F44BE9BC
:1008500050E060E070E0409366025093670260935E
:10086000680270936902C0E2C82B6C2F86E00E9478
:10087000E90386E00E940B0491E0C81390E0892F01
:10088000DF91CF910895219771F045E550E060E048
:1008900070E0409366025093670260936802709321
:1008A0006902C0E0E1CF41E450E060E070E04093D5
:1008B0006602509367026093680270936902C8E011
:1008C000D3CFFF920F931F93CF93DF93C82FF62EB2
:1008D000072F142F0E94C1038C2F80620E942803CF
:1008E00080935802CF2DD02F115020F089910E9473
:1008F0002803FACFDF91CF911F910F91FF900C94B5
:1009000099010E94FC0360915F02616060935F0245
:1009100080E00E94E90360E787E00E94E90381E04C
:100920000E94770180916102882339F0409163022F
:100930006AE572E08AE00C94610482E00E940B0494
:10094000EEE7F1E0E49121E030E001C0220FEA950A
:10095000EAF72095622F682382E00E94E903109253
:1009600061020895CF93C82F0E94C1038C2F0E946B
:10097000280380935802CF910C94990181EE0E9434
:10098000B20480915802089580E00E94770180911E
:100990006602909167020E9480018091620281113B
:1009A0000E94BE0460915F026E7F60935F0280E0F0
:1009B0000E94E90382E00E940B04EEE7F1E0E4917B
:1009C00061E070E001C0660FEA95EAF7682B82E00B
:1009D0000C94E9030E94C10380E50E9428038093E0
:1009E000580283E70E9428030C9499011F920F92EA
:1009F0000FB60F9211242F933F938F939F93AF9332
:100A0000BF938091AA019091AB01A091AC01B091EC
:100A1000AD013091A90126E0230F2D3768F129E8B7
:100A2000230F0396A11DB11D2093A9018093AA0154
:100A30009093AB01A093AC01B093AD018091AE0156
:100A40009091AF01A091B001B091B1010196A11DAB
:100A5000B11D8093AE019093AF01A093B001B0930C
:100A6000B101BF91AF919F918F913F912F910F90C5
:100A70000FBE0F901F9018950296A11DB11DD4CFE7
:100A80001F920F920FB60F9211242F933F934F9303
:100A90005F936F937F938F939F93AF93BF93EF93E6
:100AA000FF9382EB91E00E946702FF91EF91BF916B
:100AB000AF919F918F917F916F915F914F913F91F6
:100AC0002F910F900FBE0F901F9018951F920F92AD
:100AD0000FB60F9211242F938F939F93EF93FF9351
:100AE000E091C201F091C3018081E091C801F091D1
:100AF000C90182FD1BC090818091CB018F5F8F73F4
:100B00002091CC01821741F0E091CB01F0E0EE544E
:100B1000FE4F958F8093CB01FF91EF919F918F9125
:100B20002F910F900FBE0F901F9018958081F4CFDA
:100B3000E2EBF1E01382128288EE93E0A0E0B0E0F5
:100B400084839583A683B7838AE091E09183808331
:100B500085EC90E09587848784EC90E09787868782
:100B600080EC90E0918B808B81EC90E0938B828B7A
:100B700082EC90E0958B848B86EC90E0978B868B53
:100B8000118E128E138E148EE0E5F2E087E08283E0
:100B900088E0838380E896E9A8E9B0E084839583C0
:100BA000A683B78380E28187108A118A85E0838BD0
:100BB00081E0848B158A85E090E0A0E0B0E0828F30
:100BC000938FA48FB58F8FE492E0918380831286F8
:100BD0000895789484B5836084BD85B5836085BDB0
:100BE00080916E00816080936E0082E0809381002E
:100BF000809181008160809381008091800081607C
:100C0000809380008091B10084608093B1008091D6
:100C1000B00081608093B0008091910083608093E8
:100C20009100809190008160809390008091A1005C
:100C300083608093A1008091A00081608093A000D8
:100C400086E880937A001092C10004B603FC06C0C7
:100C500080E090E00E94B3098093700214BE68EEB9
:100C600073E080E090E00E94C101E091C201F09148
:100C7000C30182E08083E091BE01F091BF01108248
:100C8000E091C001F091C10187E680831092CA0112
:100C9000E091C601F091C70186E08083E091C40134
:100CA000F091C501808188698083E091C401F09151
:100CB000C50180818F7D80830E942F0382E00E9486
:100CC000ED0083E00E94ED0084E00E94ED000E94B0
:100CD0002F03809152028F3F09F4EDC0909153028F
:100CE0009F3F09F4E8C0891731F00E94ED00809120
:100CF00053020E94ED0080E00E94770181E00E9493
:100D00008B0165E070E080E090E00E94C1016FE53A
:100D100084E00E94E90390E080E00E941D048DE1E0
:100D20000E940B04C82F0E94EA048DE10E940B046C
:100D300091E0C81390E090936002882341F0C813BB
:100D400002C00E94EA0460E08DE10E94E903109273
:100D5000620260E08CE10E94E903109264026FE39A
:100D600081E00E94E90363E082E00E94E90380E2FF
:100D700080935902C1E1609159028C2F0E94E903CE
:100D8000CF5FC731C1F763E083E00E94E90385E0EC
:100D9000809363026CE40E94E90360E787E00E94AD
:100DA000E90382EE0E94B2040E94BE046CE080E07F
:100DB0000E94E90380E00E940B0480935F020E947E
:100DC000FC0380915F028E3009F075C06EE385E010
:100DD0000E94E90386E00E940B04887F682F63600D
:100DE00086E00E94E90380E280935902C1E16091AC
:100DF00059028C2F0E94E903CF5FC731C1F74091A0
:100E0000630260E071E08AE00E9461044091630245
:100E100060E071E080E10E946104E5EBF0E0849124
:100E20004091630260E071E00E94610482E00E94F0
:100E30000B04EFE7F1E0E49161E070E001C0660FC0
:100E4000EA95EAF7682B82E00E94E90390E080E0EF
:100E50000E941D040E94810461E082E00E940C0156
:100E600089E8E82E81E0F82E90E2D92E87E10E94F1
:100E70000B0480FD5FC161E083E00E940C01C09122
:100E8000590280916402882319F0C13208F0C0E24F
:100E90000E94C10381E60E9428038093580209E85A
:100EA00011E0C15008F438C18FEF0E942803F80107
:100EB00081938F01F6CF61E082E00E940C0168EE21
:100EC00073E080E090E00E94C10160E082E00E9457
:100ED0000C0168EE73E080E090E00E94C1018BE1BC
:100EE00091E00E94B303E7CF8091690161E0853210
:100EF00009F072C080916A018E3509F06DC084E0FE
:100F00000E940C0160E082E00E940C0180916B0164
:100F1000803341F580916C01803339F48CE291E0AB
:100F20000E94B3030E941103A1CF8133B1F484E383
:100F300091E00E9462036091700270E090E080E0B6
:100F40004AE00E946F036CE282EB91E00E9489020A
:100F50008AE191E00E946203E5CF8233A1F58AE342
:100F600091E0DECF893379F580916C01803359F5BA
:100F700080916E01873421F580916F01823501F5F2
:100F8000809170018335E1F440E150E070E060E071
:100F900082E791E00E94BC084B015C0185E491E08E
:100FA0000E946203C501B4018827992740E10E948D
:100FB0006F0388E191E00E94620388E591E0B0CF81
:100FC00080E691E0C7CF60E084E00E940C0161E020
:100FD00082E00E940C01A6CF84E00E940C0161E037
:100FE00070E080E090E00E94C10189E691E00E94FB
:100FF000B3030E94C4040E949C014B015C018091D8
:101000006402D0E2C0E0811107C0C0915902DC2F18
:10101000C13208F0D0E2CD1B0E94C10380EA0E94D9
:10102000280380935802D15030F0F80181918F014C
:101030000E942803F8CFC15020F080E00E942803CE
:10104000FACF0E94990181E00E9477018FB7F8944E
:101050004090AA015090AB016090AC017090AD013E
:101060008FBF8FEF0E94B204809158028073E1F528
:101070002FB7F8948091AA019091AB01A091AC0197
:10108000B091AD012FBF84199509A609B709803623
:101090009105A105B10528F381E080936502C0E0C8
:1010A0000E949C012B013C01CC2369F18BEF90E065
:1010B0000E94D60287EE90E00E94D602C301B201E0
:1010C000681979098A099B094AE00E946F038BED30
:1010D00090E00E94D60289E691E00E94B3030E944C
:1010E000810460E084E075CF80E00E94770160E7D2
:1010F00087E00E94E90380915802C1E084FFD0CFCD
:101100000E94BE04CCCF8AEB90E00E94D60288E118
:1011100091E00E946203E3CF0E94990160E487E0BE
:101120000E94E90389E891E00E94B30360E083E054
:101130000E940C0182EB91E00E945102892B09F47C
:10114000F1CE09E611E0F801D192EE16FF06E1F7C3
:1011500082EB91E00E9451025C01C9E6D1E0CE0130
:10116000895691408A159B050CF0BECE82EB91E02A
:101170000E942F028993F3CFB0E0A0E0E2ECF8E008
:101180000C94F9095C016B017A016115710519F084
:10119000FB0191838083E114F10449F0C7010297B8
:1011A000839728F060E070E0CB019CC05E01E50110
:1011B0002196F5011081812F90E00E94A709892BCB
:1011C000A9F71D3209F056C02196F501118101E001
:1011D000E114F10409F4AEC0F0E1EF16F10409F0F6
:1011E0008EC0103341F488818F7D883509F083C02B
:1011F000198122960260E0E1EE2EF12C88248A9477
:10120000982CA82CFFE0BF2E20E060E070E0CB011E
:1012100027010F2C000C66087708FE0150ED352ED3
:10122000310E39E0331538F43FEB310F3A31A0F588
:1012300049EC342E310E3E141F04BCF52F3FB9F09B
:1012400086169706A806B90670F1A30192010E94BE
:10125000BB09232D30E050E040E0620F731F841F74
:10126000951F6217730784079507E8F021E0219620
:101270001081D3CF1B3221F4E5012296F5011181B3
:1012800000E0A6CF78E0E72EF12C88248A94982CF1
:10129000A82C6FE1B62EB8CF3FE9310F3A3128F4D0
:1012A00039EA332EC7CF2FEFE2CFC114D10431F08A
:1012B0002223E9F02197F601D183C08300FF07C004
:1012C00090958095709561957F4F8F4F9F4F2F3FE1
:1012D00049F482E290E090936F0280936E026FEF88
:1012E0007FEFCB01CDB7DEB7E1E10C94150A01FF2A
:1012F000E5CF2297E0CF10E3E114F10419F23AE0D0
:10130000E316F104E9F080E1E816F10409F473CF83
:10131000E8E0EE16F10409F4B8CF6FEF7FEFCB01F0
:1013200097010F2C000C440B550B0E94CB0949016F
:101330005A016ACF103309F456CF9AE0E92EF12C06
:1013400089E9882E982CA82C89E1B82E5DCF9111BF
:101350000C94B009803219F089508550C8F708956F
:10136000992788270895F999FECF92BD81BDF89AF3
:10137000992780B50895DB018F939F930E94ED0913
:10138000BF91AF91A29F800D911DA39F900DB29F21
:10139000900D11240895A1E21A2EAA1BBB1BFD017A
:1013A0000DC0AA1FBB1FEE1FFF1FA217B307E40744
:1013B000F50720F0A21BB30BE40BF50B661F771F9C
:1013C000881F991F1A9469F760957095809590957C
:1013D0009B01AC01BD01CF0108950E942F0AA59F7A
:1013E000900DB49F900DA49F800D911D1124089520
:1013F0002F923F924F925F926F927F928F929F9225
:10140000AF92BF92CF92DF92EF92FF920F931F9312
:10141000CF93DF93CDB7DEB7CA1BDB0B0FB6F894C3
:10142000DEBF0FBECDBF09942A88398848885F8403
:101430006E847D848C849B84AA84B984C884DF8074
:10144000EE80FD800C811B81AA81B981CE0FD11D58
:101450000FB6F894DEBF0FBECDBFED010895A29F79
:10146000B001B39FC001A39F700D811D1124911D78
:10147000B29F700D811D1124911D0895EE0FFF1F65
:0C1480000590F491E02D0994F894FFCF42
:10148C00454645463000000000008902F301200269
:10149C00F10251022F0243020D0A00252539392091
:1014AC00524144494F204552524F5200252530306D
:1014BC002C4F4B00252530312C00252530322C317A
:1014CC002E322E3100436F6E766572746564206E19
:1014DC00756D6265723A2000252539302C4F4B0012
:0814EC00252539302C3F0000DA
:00000001FF
