:100000000C9470090C9498090C9498090C94980914
:100010000C9498090C9498090C9498090C949809DC
:100020000C9498090C9498090C9498090C949809CC
:100030000C9498090C9498090C9498090C949809BC
:100040000C941B0F0C9498090C948B0F0C94650F57
:100050000C9498090C9498090C9498090C9498099C
:100060000C9498090C9498090C9498090C9498098C
:100070000C9498090C9498090C9498090C9498097C
:100080000C9498090C9498090C9498090C9498096C
:100090000C9498090C9498090C9498090C9498095C
:1000A0000C9498090C9498090C9498090C9498094C
:1000B0000C949809200030005B4845585D20000AE8
:1000C0000B0C0D0E0F0001020304055B5241444965
:1000D0004F5D20526164696F20696E697469616C5B
:1000E000697A6564207375636365737366756C6C98
:1000F00079210030002020416464726573733A20D6
:1001000030780020204461746120526174653A2087
:10011000002020506F776572204C6576656C3A2020
:100120000020205061796C6F61642053697A653AD0
:10013000200020204368616E6E656C3A20005B529F
:100140004144494F5D20436F6E6669677572617403
:10015000696F6E3A00202053434B3A203133002020
:10016000204D49534F3A2031320020204D4F534902
:100170003A20313100202043534E2050696E3A20FE
:100180003800202043452050696E3A2037004368EC
:1001900065636B20776972696E6720616E642063A6
:1001A0006F6E6E656374696F6E733A005B45525291
:1001B0004F525D20526164696F20696E6974696194
:1001C0006C697A6174696F6E206661696C6564211F
:1001D000005B524144494F5D20496E697469616C0E
:1001E000697A696E67206E524632344C30312B206A
:1001F000726164696F2E2E2E005479706520276815
:10020000656C702720666F7220617661696C61622F
:100210006C6520636F6D6D616E647300526164691B
:100220006F20696E697469616C697A656420616EBA
:1002300064206C697374656E696E672E2E2E00548F
:100240006172676574204465766963652049443A44
:1002500020307800436F6D70617469626C6520773F
:10026000697468204D43425F46575F56322E325FB5
:1002700042414D4F5448206669726D776172650046
:10028000E2959AE29590E29590E29590E29590E25F
:100290009590E29590E29590E29590E29590E295A6
:1002A00090E29590E29590E29590E29590E295909B
:1002B000E29590E29590E29590E29590E29590E239
:1002C0009590E29590E29590E29590E29590E29576
:1002D00090E29590E29590E29590E29590E295906B
:1002E000E29590E29590E29590E29590E29590E209
:1002F0009590E29590E29590E29590E29590E29546
:1003000090E29590E29590E29590E29590E295903A
:10031000E29590E29590E29590E29590E29590E2D8
:100320009590E29590E29590E29590E29590E29515
:1003300090E29590E29590E29590E29590E2959DFD
:1003400000E2959120202020202020202020202025
:1003500020202020202020C2A945646765466C79B2
:1003600074652C204C4C43202D2032303235202017
:10037000202020202020202020202020202020207D
:100380002020E2959100E29591202020202020203D
:1003900020202020202020202020202043532047E0
:1003A000524F554E442053544154494F4E207631BC
:1003B0002E3020202020202020202020202020201F
:1003C000202020202020E2959100E29594E2959053
:1003D000E29590E29590E29590E29590E29590E218
:1003E0009590E29590E29590E29590E29590E29555
:1003F00090E29590E29590E29590E29590E295904A
:10040000E29590E29590E29590E29590E29590E2E7
:100410009590E29590E29590E29590E29590E29524
:1004200090E29590E29590E29590E29590E2959019
:10043000E29590E29590E29590E29590E29590E2B7
:100440009590E29590E29590E29590E29590E295F4
:1004500090E29590E29590E29590E29590E29590E9
:10046000E29590E29590E29590E29590E29590E287
:100470009590E29590E29590E29590E29590E295C4
:1004800090E29590E29590E29597005B4552524F2D
:10049000525D20496E76616C69642064657669639B
:1004A0006520494400730020557074696D653A20D9
:1004B00000204D6F64653A20005B50494E475D2037
:1004C0004669726D776172653A2076004641494C03
:1004D000004F4B00206279746573002020467265DE
:1004E0006520486561703A200020204D6F64653AB0
:1004F000200020204572726F72733A2000464149F5
:100500004C004F4B002020526164696F3A20004636
:1005100041494C004F4B00202053443A20004641B3
:10052000494C004F4B0020204750533A2000464191
:10053000494C004F4B002020494D553A2000464180
:10054000494C004F4B00202053485433313A20008F
:10055000202053485434313A20005B5354415455C1
:10056000535D2053797374656D204865616C7468C0
:100570003A005B454E565D204E6F20646174610009
:10058000205741524E002500C2B04320483A005B3C
:10059000454E565D20543A002C002C0020473A006E
:1005A0002C002C005B494D555D20413A005B494DC4
:1005B000555D204E6F206461746100205361747337
:1005C0003A002C005B4750535D20005B4750535D61
:1005D000204E6F206669782C20536174733A200096
:1005E0005B4149525D204E6F206461746100205070
:1005F0004D31303A005B4149525D20504D322E352D
:100600003A00556E6B0046756C6C00436867004E8F
:100610006F74436867002520005620005B424D53ED
:100620005D20005B424D535D204E6F20646174611C
:10063000004E6F005965730020204572726F722062
:10064000436F756E743A20002020545820436F7514
:100650006E743A20004E6F0059657300202044618B
:10066000746120417661696C61626C653A2000209A
:10067000204368697020436F6E6E65637465643AE9
:10068000200020205061796C6F61642053697A6585
:100690003A200020204461746120526174653A2040
:1006A000002020506F776572204C6576656C3A208B
:1006B0000020204368616E6E656C3A20005B5241F9
:1006C00044494F5D20436F6D6D756E696361746958
:1006D0006F6E205374617475733A004641494C0043
:1006E0004F4B004641494C004F4B002020202052E8
:1006F0006164696F3A20004641494C004F4B00202D
:1007000020202053443A20004641494C004F4B00E2
:10071000202020204750533A20004641494C004FAA
:100720004B0020202020494D553A20004641494C9D
:10073000004F4B002020202053485433313A2000F2
:100740002020202053485434313A20002020436F89
:100750006D706F6E656E74205374617475733A00BA
:100760002020426F6F7420436F756E743A20002012
:100770006279746573002020467265652048656162
:10078000703A200020204572726F7220436F756EA0
:10079000743A200020204F7065726174696F6E6139
:1007A0006C204D6F64653A20002F313030002020DE
:1007B0004F766572616C6C2053636F72653A2000EE
:1007C0005B4845414C54485D2053797374656D20F6
:1007D0004865616C746820436865636B3A005B57D9
:1007E00041524E5D20556E6B6E6F776E2070616367
:1007F0006B657420747970653A2030780029002088
:10080000280020547970653A203078005B52585D9A
:10081000204465766963653A203078005B45525222
:100820004F525D20496E76616C6964207061636B24
:10083000657420726563656976656400E2959AE285
:100840009590E29590E29590E29590E29590E295F0
:1008500090E29590E29590E29590E29590E29590E5
:10086000E29590E29590E29590E29590E29590E283
:100870009590E29590E29590E29590E29590E295C0
:1008800090E29590E29590E29590E29590E29590B5
:10089000E29590E29590E29590E29590E29590E253
:1008A0009590E29590E29590E29590E29590E29590
:1008B00090E29590E29590E29590E29590E2959085
:1008C000E29590E29590E29590E29590E29590E223
:1008D0009590E29590E29590E29590E29590E29560
:1008E00090E29590E29590E29590E29590E2959055
:1008F000E29590E29590E29590E2959D00783A20FD
:1009000000E29591202020205479706520307830C5
:100910003000E2959120205061636B65742054791A
:10092000706520436F756E74733A00E295910020F4
:100930007365636F6E64732061676F00E295912049
:10094000204C617374205061636B65743A200025FC
:1009500000E29591202053756363657373205261A3
:1009600074653A2000E295912020556E6B6E6F778A
:100970006E2054797065733A2000E29591202043EF
:100980005243204572726F72733A2000E2959120B3
:1009900020496E76616C6964205061636B65747385
:1009A0003A2000E29591202056616C6964205061E4
:1009B000636B6574733A2000E295912020546F7444
:1009C000616C205061636B6574733A20002073651D
:1009D000636F6E647300E2959120205365737369B1
:1009E0006F6E2054696D653A2000E295A0E2959003
:1009F000E29590E29590E29590E29590E29590E2F2
:100A00009590E29590E29590E29590E29590E2952E
:100A100090E29590E29590E29590E29590E2959023
:100A2000E29590E29590E29590E29590E29590E2C1
:100A30009590E29590E29590E29590E29590E295FE
:100A400090E29590E29590E29590E29590E29590F3
:100A5000E29590E29590E29590E29590E29590E291
:100A60009590E29590E29590E29590E29590E295CE
:100A700090E29590E29590E29590E29590E29590C3
:100A8000E29590E29590E29590E29590E29590E261
:100A90009590E29590E29590E29590E29590E2959E
:100AA00090E29590E29590E295A300E29591202046
:100AB0002020202020202020202020202020202036
:100AC0002020524543455054494F4E2053544154E1
:100AD0004953544943532020202020202020202007
:100AE0002020202020202020202020E2959100E2BC
:100AF0009594E29590E29590E29590E29590E2953A
:100B000090E29590E29590E29590E29590E2959032
:100B1000E29590E29590E29590E29590E29590E2D0
:100B20009590E29590E29590E29590E29590E2950D
:100B300090E29590E29590E29590E29590E2959002
:100B4000E29590E29590E29590E29590E29590E2A0
:100B50009590E29590E29590E29590E29590E295DD
:100B600090E29590E29590E29590E29590E29590D2
:100B7000E29590E29590E29590E29590E29590E270
:100B80009590E29590E29590E29590E29590E295AD
:100B900090E29590E29590E29590E29590E29590A2
:100BA000E29590E29590E29590E29590E29597001B
:100BB000E2959AE29590E29590E29590E29590E226
:100BC0009590E29590E29590E29590E29590E2956D
:100BD00090E29590E29590E29590E29590E2959062
:100BE000E29590E29590E29590E29590E29590E200
:100BF0009590E29590E29590E29590E29590E2953D
:100C000090E29590E29590E29590E29590E2959031
:100C1000E29590E29590E29590E29590E29590E2CF
:100C20009590E29590E29590E29590E29590E2950C
:100C300090E29590E29590E29590E29590E2959001
:100C4000E29590E29590E29590E29590E29590E29F
:100C50009590E29590E29590E29590E29590E295DC
:100C600090E29590E29590E29590E29590E2959DC4
:100C700000E295912020726164696F20202020207D
:100C8000202020202D2053686F7720726164696FC7
:100C900020636F6E66696775726174696F6E20207C
:100CA0002020202020202020202020202020202044
:100CB00020E2959100E29591202072657365742081
:100CC00020202020202020202D20526573657420B4
:100CD0007374617469737469637320202020202009
:100CE0002020202020202020202020202020202004
:100CF0002020202020E2959100E29591202064653B
:100D000076696365203C49443E2020202D205365B0
:100D10007420746172676574206465766963652008
:100D20004944202868657829202020202020202080
:100D3000202020202020202020E2959100E2959183
:100D40002020636F6D706163742F6320202020204A
:100D50002D20546F67676C6520636F6D70616374DD
:100D6000206F7574707574206D6F6465202020206D
:100D700020202020202020202020202020E29591CB
:100D800000E29591202063737620202020202020EF
:100D9000202020202D20546F67676C652043535618
:100DA000206F757470757420666F726D6174202089
:100DB0002020202020202020202020202020202033
:100DC00020E2959100E2959120206A736F6E2020B9
:100DD00020202020202020202D20546F67676C6564
:100DE000204A534F4E206F757470757420666F7271
:100DF0006D61742020202020202020202020202011
:100E00002020202020E2959100E295912020686525
:100E10007820202020202020202020202D20546FEA
:100E200067676C6520726177206865782070616300
:100E30006B657420646973706C61792020202020B8
:100E4000202020202020202020E2959100E2959172
:100E5000202064656275672020202020202020202B
:100E60002D20546F67676C65206465627567206F1D
:100E700075747075742020202020202020202020D0
:100E800020202020202020202020202020E29591BA
:100E900000E295912020737461747320202020203B
:100EA000202020202D2053686F77207265636570A5
:100EB00074696F6E207374617469737469637320ED
:100EC0002020202020202020202020202020202022
:100ED00020E2959100E29591202068656C702020B9
:100EE00020202020202020202D2053686F77207480
:100EF0006869732068656C70206D656E75202020B0
:100F000020202020202020202020202020202020E1
:100F10002020202020E2959100E295A0E29590E229
:100F20009590E29590E29590E29590E29590E29509
:100F300090E29590E29590E29590E29590E29590FE
:100F4000E29590E29590E29590E29590E29590E29C
:100F50009590E29590E29590E29590E29590E295D9
:100F600090E29590E29590E29590E29590E29590CE
:100F7000E29590E29590E29590E29590E29590E26C
:100F80009590E29590E29590E29590E29590E295A9
:100F900090E29590E29590E29590E29590E295909E
:100FA000E29590E29590E29590E29590E29590E23C
:100FB0009590E29590E29590E29590E29590E29579
:100FC00090E29590E29590E29590E29590E295906E
:100FD000E29590E29590E295A300E2959120202081
:100FE0002020202020202020202020202020202001
:100FF0002047524F554E442053544154494F4E20A0
:10100000434F4D4D414E445320202020202020208E
:1010100020202020202020202020E2959100E29511
:1010200094E29590E29590E29590E29590E2959009
:10103000E29590E29590E29590E29590E29590E2AB
:101040009590E29590E29590E29590E29590E295E8
:1010500090E29590E29590E29590E29590E29590DD
:10106000E29590E29590E29590E29590E29590E27B
:101070009590E29590E29590E29590E29590E295B8
:1010800090E29590E29590E29590E29590E29590AD
:10109000E29590E29590E29590E29590E29590E24B
:1010A0009590E29590E29590E29590E29590E29588
:1010B00090E29590E29590E29590E29590E295907D
:1010C000E29590E29590E29590E29590E29590E21B
:1010D0009590E29590E29590E29590E29597005474
:1010E000797065202768656C702720666F722061B3
:1010F0007661696C61626C6520636F6D6D616E64B1
:10110000730027005B4552524F525D20556E6B6E47
:101110006F776E20636F6D6D616E643A2027004EAD
:101120006F00596573004E6F0059657300202043AE
:1011300068697020436F6E6E65637465643A200061
:101140002020417661696C61626C653A2000202044
:101150004461746120526174653A20002020506F10
:10116000776572204C6576656C3A200020205061CE
:10117000796C6F61642053697A653A2000202043BE
:1011800068616E6E656C3A20005B524144494F5D68
:1011900020436F6E66696775726174696F6E3A009D
:1011A0005B434F4E4649475D2053746174697374C5
:1011B000696373207265736574005B434F4E4649E3
:1011C000475D205461726765742064657669636564
:1011D0002049443A203078004F4646004F4E005B8D
:1011E000434F4E4649475D20436F6D7061637420E5
:1011F0006F75747075743A20004F4646004F4E006C
:101200005B434F4E4649475D20435356206F7574EC
:101210007075743A20004F4646004F4E005B434FB6
:101220004E4649475D204A534F4E206F7574707586
:10123000743A20004F4646004F4E005B434F4E46E7
:1012400049475D2052617720686578206F7574701A
:1012500075743A20004F4646004F4E005B434F4E98
:101260004649475D204465627567206F75747075E7
:10127000743A20000A0D0E0900030200000405085C
:10128000000000000000000000000000000000005E
:10129000000000250028002B002E00000000002484
:1012A0000027002A002D000404040404040404029E
:1012B0000202020202030303030303020203050501
:1012C00005050102040810204080010204081020D6
:1012D0000102040810204080400102040800BD0FF4
:1012E00011241FBECFEFD8E0DEBFCDBF24E0AEE6B5
:1012F000B3E001C01D92AA3AB207E1F713E0A0E003
:10130000B1E0E6E4F6E402C005900D92AE36B10716
:10131000D9F719E0C0E7D9E004C02197FE010E9487
:10132000D720CF36D107C9F70E940D100C94212386
:101330000C94000090E0FC01EE53FD4E2491895581
:101340009D4EFC018491882399F090E0880F991FAD
:10135000FC01E556FD4EA591B491FC01E157FD4E0F
:10136000859194918FB7F894EC91E22BEC938FBF19
:101370000895282F30E0F901EC58FD4E9491F901C1
:10138000EE53FD4E849129553D4EF90124912223BF
:1013900009F42EC09923D9F092509D30C0F4E92F62
:1013A000F0E0EB52F64F0C94D7201B0A1F0AE2091B
:1013B000F909E709E709FD09030A070A0D0AE70920
:1013C000110A170A909180009F7790938000E22F76
:1013D000F0E0EE0FFF1FE157FD4EA591B4919FB7CE
:1013E000F894EC9161112EC080958E238C939FBF51
:1013F0000895909180009F7DE8CF9091B0009F77F5
:101400009093B000E4CF9091B0009F7DF9CF909180
:1014100090009F7790939000DACF909190009F7DFD
:10142000F9CF9091A0009F779093A000D0CF90919A
:10143000A0009F7DF9CF94B59F7794BDC8CF94B598
:101440009F7DFBCF8E2BD2CF000000008330910513
:1014500028F0880F991F05970197F1F70895CF930A
:10146000DF93C1E8D4E0682F8B810E94B9098F8D8A
:1014700098A1DF91CF910C94240A81E00C942F0A5B
:101480003FB7F8948091DF039091E003A091E103CE
:10149000B091E20326B5A89B05C02F3F19F0019635
:1014A000A11DB11D3FBFBA2FA92F982F8827BC01BE
:1014B000CD01620F711D811D911D43E0660F771FE5
:1014C000881F991F4A95D1F708958F929F92AF92E6
:1014D000BF92CF92DF92EF92FF926B017C010E944C
:1014E000400A4B015C01C114D104E104F104B9F0DC
:1014F0000E94400A681979098A099B09683E73406D
:101500008105910580F321E0C21AD108E108F108B4
:1015100088EE880E83E0981EA11CB11CE4CFFF90DA
:10152000EF90DF90CF90BF90AF909F908F900895F5
:101530002FB7F8946091DB037091DC038091DD0399
:101540009091DE032FBF0895AF92BF92CF92DF92AA
:10155000EF92FF920F931F93CF93DF936C017B0168
:101560008B01040F151FEB015E01AE18BF08C017F9
:10157000D10759F06991D601ED91FC910190F0816C
:10158000E02DC6010995892B79F7C501DF91CF912F
:101590001F910F91FF90EF90DF90CF90BF90AF9091
:1015A0000895FC01538D448D252F30E0842F90E069
:1015B000821B930B541710F0CF960895019708954E
:1015C000FC01918D828D981761F0A28DAE0FBF2F17
:1015D000B11D5D968C91928D9F5F9F73928F90E06D
:1015E00008958FEF9FEF08950F931F930E94980A1D
:1015F0006093EB037093EC038093ED039093EE0301
:1016000083EE93E00E94E00A97FF1DC00E94980AB3
:101610000091EB031091EC032091ED033091EE0368
:10162000601B710B820B930B0091E7031091E80391
:101630002091E9033091EA0360177107820793074D
:10164000F8F28FEF9FEF1F910F910895FC01918D9C
:10165000828D981731F0828DE80FF11D858D90E015
:1016600008958FEF9FEF0895FC01918D228D892FB2
:1016700090E0805C9F4F821B91098F73992708959A
:1016800083EE93E00E94340B21E0892B09F420E0E3
:10169000822F0895FC01A48DA80FB92FB11DA35A64
:1016A000BF4F2C91848D90E001968F739927848F82
:1016B000A689B7892C93A089B1898C9183708064A5
:1016C0008C93938D848D981306C00288F389E02D46
:1016D00080818F7D80830895EF92FF920F931F93F7
:1016E000CF93DF93EC0181E0888F9B8D8C8D9813D5
:1016F0001AC0E889F989808185FF15C09FB7F894E1
:10170000EE89FF896083E889F9898081837080642C
:1017100080839FBF81E090E0DF91CF911F910F9177
:10172000FF90EF900895F62E0B8D10E00F5F1F4F86
:101730000F731127E02E8C8D8E110CC00FB607FC95
:10174000FACFE889F989808185FFF5CFCE010E9423
:101750004A0BF1CFEB8DEC0FFD2FF11DE35AFF4F3C
:10176000F0829FB7F8940B8FEA89FB8980818062B1
:10177000CFCF0F931F93CF93DF938C01D0E0C0E0C6
:10178000F801EC0FFD1F6491662341F083EE93E0B6
:101790000E946C0B892B11F02196F2CFCE01DF91C4
:1017A000CF911F910F910895CF93DF93EC01888D16
:1017B0008823B9F0AA89BB89E889F9898C9185FDCC
:1017C00003C0808186FD0DC00FB607FCF7CF8C915A
:1017D00085FFF2CF808185FFEDCFCE010E944A0BBD
:1017E000E9CFDF91CF91089580E090E0892B29F037
:1017F0000E94400B81110E94000080E090E0892B44
:1018000049F080E090E0892B29F00E9400008111CE
:101810000C94000008958EBD00000DB407FEFDCFAE
:101820008EB508951F93CF93DF93182FEB0161E0DE
:101830000E94B909BE0190E080E00E94650A60E064
:10184000812FDF91CF911F910C94B909FC01019078
:101850000020E9F73197AF01481B590BBC0183EE1B
:1018600093E00C94A40A8CEC91E00C94260CCF939A
:10187000DF930E94B90BEC010E94330C8C0F9D1F6B
:10188000DF91CF9108958F929F92AF92BF920F9365
:101890001F93CF93DF93CDB7DEB7A1970FB6F89420
:1018A000DEBF0FBECDBF19A2423008F44AE08E0160
:1018B0000F5D1F4F842E912CB12CA12CA5019401FA
:1018C0000E944C1FE62FB901CA01EA30F4F4E05D32
:1018D000D801EE938D01232B242B252B79F790E053
:1018E00080E0109719F0CD010E94260CA1960FB64A
:1018F000F894DEBF0FBECDBFDF91CF911F910F9146
:10190000BF90AF909F908F900895E95CE1CF0C94C9
:10191000430CAB01682F70E090E080E00C94870CE2
:10192000CF93DF936AE070E00E94890CEC010E9483
:10193000330C8C0F9D1FDF91CF9108950F931F9350
:10194000CF93DF938C0188EB90E00E94B90BE80104
:1019500010E000E08991803120F486EB90E00E9455
:10196000B90B60E170E0FE01319780810E94890C23
:101970000F31110521F084EB90E00E94B90B0F5F4D
:101980001F4F0032110531F7DF91CF911F910F9159
:101990000C94330CCF93DF93AB01BC0190E080E05B
:1019A0000E94870CEC010E94330C8C0F9D1FDF916D
:1019B000CF910895CF93DF93D0E0C0E0009719F066
:1019C0000E94260CEC010E94330C8C0F9D1FDF91AE
:1019D000CF9108954F925F926F927F928F929F92D4
:1019E000AF92BF92CF92DF92EF92FF920F931F932D
:1019F000CF936B017C01742EAC019B010E94D2201D
:101A0000882399F08FEC91E0CF911F910F91FF9077
:101A1000EF90DF90CF90BF90AF909F908F907F908E
:101A20006F905F904F900C94260C46015701E894FC
:101A3000B7F82FEF3FEF4FE75FE7C501B4010E9412
:101A4000D22081110DC02FEF3FEF4FE75FE7C501B7
:101A5000B4010E94181E18161CF483ED91E0D4CF37
:101A60002FEF3FEF4FE75FE4C701B6010E94CD20A3
:101A700018161CF487ED91E0C7CF2FEF3FEF4FE72B
:101A80005FECC701B6010E94181E87FDF3CF20E06E
:101A900030E0A901C701B6010E94181E10E000E065
:101AA00087FF0AC06DE283EE93E00E946C0B8C010D
:101AB000F7FAF094F7F8F094C0E060E070E080E0AE
:101AC0009FE37C1641F020E030E040E251E40E94C8
:101AD0002C20CF5FF6CFA70196010E94C01F2B01DB
:101AE0003C010E949E204B015C014AE00E94430C95
:101AF0007C01E00EF11ECC23C1F1C501B4010E94AE
:101B00001D1E9B01AC01C301B2010E94BF1F4B010E
:101B10005C016EE283EE93E00E946C0BE80EF91E0E
:101B2000C15018F120E030E040E251E4C501B401B9
:101B30000E947E1E2B013C010E949E204B01B12C75
:101B4000A12C4AE0C501B4010E94430CE80EF91E25
:101B5000C501B4010E941D1E9B01AC01C301B2016D
:101B60000E94BF1F4B015C01DBCFC701CF911F91CA
:101B70000F91FF90EF90DF90CF90BF90AF909F902C
:101B80008F907F906F905F904F9008950C94EA0C27
:101B9000CF93DF934AE00E94430CEC010E94330C88
:101BA0008C0F9D1FDF91CF910895CF93DF93BC01E0
:101BB000990F880B990B4AE00E94430CEC010E949C
:101BC000330C8C0F9D1FDF91CF9108950F931F93BE
:101BD0000091850410918604209187043091880437
:101BE00040E059E06DE370E080E004171507260738
:101BF000370740F476956795579547958F5F863000
:101C0000A1F787E0982F906A9695809581709CBD8A
:101C10008DBD80E01F910F910C942F0ACF93C82F98
:101C20000E94E60D8C2F0E940B0C809389048FEF8D
:101C30000E940B0CC82F0E943D0A8C2FCF91089553
:101C4000CF93DF93D82FC62F0E94E60D8D2F806291
:101C50000E940B0C809389048C2F0E940B0CDF9147
:101C6000CF910C943D0A6091950461FD0AC06260B9
:101C70006093950480E00E94200E88E893E10C9424
:101C8000240A0895CF9386E00E940E0EC82FC77DC8
:101C900085E590E0A0E0B0E080939C0490939D04E3
:101CA000A0939E04B0939F046C2F86E00E94200EA8
:101CB00086E00E940E0E91E0C81390E0892FCF912C
:101CC0000895FF920F931F93CF93DF93C82FF62EA3
:101CD000072F142F0E94E60D8C2F80620E940B0CA0
:101CE00080938904CF2DD02F115020F089910E942C
:101CF0000B0CFACFDF91CF911F910F91FF900C94B5
:101D00003D0ACF93C82F0E94E60D8C2F0E940B0C2A
:101D100080938904CF910C943D0A0E94E60D80E5E2
:101D20000E940B0C8093890483E70E940B0C0C9497
:101D30003D0A0F931F93CF93DF93EC018881998124
:101D4000009759F02A813B812617370730F081E050
:101D5000DF91CF911F910F9108958B016F5F7F4F9E
:101D60000E940922009759F0998388831B830A8374
:101D70002C813D81232B59F7FC011082E8CF80E0B4
:101D8000E7CFFC0124813581232B39F421E0FB01CD
:101D90008081882349F020E007C0808191810E94E2
:101DA000E92221E0892BB9F7822F0895CF93DF93A1
:101DB000EC0188819981009711F00E94802119829D
:101DC00018821D821C821B821A82DF91CF91089596
:101DD000EF92FF920F931F93CF93DF938C017B01C0
:101DE000EB0109900020E9F72197C61BD70BBE0134
:101DF0000E94990E811109C0C801DF91CF911F91F6
:101E00000F91FF90EF900C94D60EF801D583C48308
:101E1000B70180819181DF91CF911F910F91FF9048
:101E2000EF900C94F222FC0180819181009711F0D7
:101E30000C94802108951F920F920FB60F921124D7
:101E40002F933F938F939F93AF93BF938091DB0327
:101E50009091DC03A091DD03B091DE033091DA03B1
:101E600026E0230F2D3768F129E8230F0396A11DE3
:101E7000B11D2093DA038093DB039093DC03A093DE
:101E8000DD03B093DE038091DF039091E003A09126
:101E9000E103B091E2030196A11DB11D8093DF0320
:101EA0009093E003A093E103B093E203BF91AF915D
:101EB0009F918F913F912F910F900FBE0F901F9088
:101EC00018950296A11DB11DD4CF1F920F920FB687
:101ED0000F9211242F933F934F935F936F937F93B0
:101EE0008F939F93AF93BF93EF93FF9383EE93E012
:101EF0000E944A0BFF91EF91BF91AF919F918F91FB
:101F00007F916F915F914F913F912F910F900FBEF5
:101F10000F901F9018951F920F920FB60F921124D9
:101F20002F938F939F93EF93FF93E091F303F0919F
:101F3000F4038081E091F903F091FA0382FD1BC064
:101F400090818091FC038F5F8F732091FD03821736
:101F500041F0E091FC03F0E0ED51FC4F958F809350
:101F6000FC03FF91EF919F918F912F910F900FBEE6
:101F70000F901F9018958081F4CFE3EEF3E0138269
:101F8000128288EE93E0A0E0B0E084839583A6837C
:101F9000B7838EEB91E09183808385EC90E0958709
:101FA000848784EC90E09787868780EC90E0918B23
:101FB000808B81EC90E0938B828B82EC90E0958B10
:101FC000848B86EC90E0978B868B118E128E138E0D
:101FD000148EE1E8F4E087E0828388E0838380E880
:101FE00096E9A8E9B0E084839583A683B78380E26D
:101FF0008187158A168A85E0808F81E0818F128E15
:1020000085E090E0A0E0B0E0878F90A3A1A3B2A309
:1020100080E894E0918380830895CF93DF93CDB7D8
:10202000DEB7E8970FB6F894DEBF0FBECDBF789449
:1020300084B5836084BD85B5836085BD80916E0065
:10204000816080936E0092E0909381008091810086
:102050008160809381008091800081608093800006
:102060008091B10084608093B1008091B000816064
:102070008093B00080919100836080939100809163
:1020800090008160809390008091A1008360809394
:10209000A1008091A00081608093A00086E88093D9
:1020A0007A001092C100E091F303F091F403908361
:1020B000E091EF03F091F0031082E091F103F091D1
:1020C000F20388E080831092FB03E091F703F09124
:1020D000F80386E08083E091F503F091F6038081B8
:1020E00088698083E091F503F091F60380818F7D0C
:1020F000808382E00E949A0983E00E949A0984E02A
:102100000E949A0960E082E00E94B90960E083E0E1
:102110000E94B90960E084E00E94B9091092770337
:1021200081E0809378031092790310927A031092E1
:102130007C0310927B0380937D03EEE7F3E08CE554
:10214000DF011D928A95E9F70E94980A6093D603F1
:102150007093D7038093D8039093D90381ED91E0D6
:102160000E94370C1FB7F89480916E03811124C030
:10217000E1EBF2E18491ECECF2E19491E82FF0E0F4
:10218000EE0FFF1FE556FD4EA591B491EC91E923AA
:1021900021F461E08AE00E94B9098AE00E949A096C
:1021A0008CB580618CBD8CB580648CBD8DE00E9447
:1021B0009A098BE00E949A0980916E038F5F809349
:1021C0006E031FBF809183048F3F09F4C9C19091B2
:1021D00084049F3F09F4C4C1891731F00E949A0911
:1021E000809184040E949A098091830490918404D0
:1021F000891719F060E00E94B90981E00E942F0A56
:1022000065E070E080E090E00E94650A6FE584E0A0
:102210000E94200E0E94420E8DE10E940E0E182F89
:102220000E948D0E8DE10E940E0E91E0181390E039
:1022300090939604882341F0181302C00E948D0EDB
:1022400060E08DE10E94200E1092980460E08CE125
:102250000E94200E10929A046FE381E00E94200EEB
:1022600063E082E00E94200E80E280938A0411E104
:1022700060918A04812F0E94200E1F5F1731C1F7E1
:1022800063E083E00E94200E85E0809399046CE473
:102290000E94200E60E787E00E94200E82EE0E94DE
:1022A000810E81EE0E94810E6CE080E00E94200E83
:1022B00080E00E940E0E809395040E94330E809160
:1022C00095048E3009F04CC16EE385E00E94200E2B
:1022D00086E00E940E0E887F682F636086E00E9471
:1022E000200E0E94420E80E280938A0411E16091E8
:1022F0008A04812F0E94200E1F5F1731C1F76FE300
:1023000081E00E94200E80919804811115C08DE11A
:102310000E940E0E682F66608DE10E94200E8CE1F7
:102320000E940E0E682F63608CE10E94200E81E0F7
:1023300080939A04809398046FE384E00E94200EB7
:10234000E0ECF0E084914091990466E071E00E9435
:10235000610E82E00E940E0EE6ECF0E0E49161E096
:1023600070E001C0660FEA95EAF7682B82E00E94F0
:10237000200E0E94330E6091950461606093950475
:1023800080E00E94200E60E787E00E94200E80918E
:10239000830490918404891719F061E00E94B909BF
:1023A00080919704882309F403C1409199046BE854
:1023B00074E08AE00E94610E8EE391E00E94370C87
:1023C00082E391E00E94B90B8EE390E00E94D50D6C
:1023D00081E291E00E94B90B80E290E00E94D50D6D
:1023E00081E191E00E94B90B81E090E00E94D50D5F
:1023F00083E091E00E94B90B90E080E00E94D50D4F
:1024000085EF90E00E94B90B06E011E08BE0C82E4A
:1024100081E0D82EF801F1908F01FFE0FF1520F048
:1024200083EF90E00E94B90B60E170E08F2D0E9475
:10243000890CC016D10671F70E94330C8BEC90E02A
:102440000E94370C8AEC93E00E94370C86E893E0F8
:102450000E94370C81E493E00E94370C80E892E000
:102460000E94370C0E94330C84E592E00E94370CE6
:102470008FE392E00E94B90B60E170E080917B03F2
:1024800090917C030E94CA0C8CE192E00E94370C70
:1024900089EF91E00E94370C0E94330C03E010E0BA
:1024A00061E082E00E94B90964E670E080E090E0BB
:1024B0000E94650A60E082E00E94B90961E083E061
:1024C0000E94B90964E670E080E090E00E94650A2D
:1024D00060E083E00E94B90961E084E00E94B909EC
:1024E00064E670E080E090E00E94650A60E084E0CD
:1024F0000E94B90964E670E080E090E00E94650AFD
:102500000150110969F687E10E940E0E80FDC9C2D3
:1025100080919A04B0E2EB2EF12C811109C08091D8
:102520008A04E82E813210F010E2E12EF82EFE1817
:102530000E94E60D81E60E940B0C809389048E01B7
:102540000F5F1F4F68015801EA942FEFE21609F45C
:1025500044C08FEF0E940B0CD6018D936D01F4CF18
:102560008CEA91E00E94370C8EE891E00E94370CD3
:1025700082E891E00E94370C85E791E00E94370CD9
:102580008AE691E00E94370C8FE591E00E94370CBB
:1025900085E591E00E94370C62E370E083E00E94E1
:1025A000120C64EF71E080E090E00E94650AF4CFC5
:1025B00082E00E940E0EE5ECF0E0E49121E030E0D4
:1025C00001C0220FEA95EAF72095622F682382E086
:1025D0000E94200E10929704EFCEFA94BFEFFB16E4
:1025E00021F08FEF0E940B0CF8CF0E943D0A60E4AF
:1025F00087E00E94200E80917E0390917F03A0913E
:102600008003B09181030196A11DB11D80937E03CB
:1026100090937F03A0938003B09381030E94980A54
:102620006093D2037093D3038093D4039093D50324
:1026300064E170E084E00E94120C809178038823AA
:1026400019F0C8010E949E0C89818A32B1F488A1D8
:10265000853299F48A819B81982789279827209130
:102660007B0330917C032115310561F182179307BB
:1026700049F18BE894E00E94370C80918603909199
:102680008703A0918803B09189030196A11DB11D14
:102690008093860390938703A0938803B093890364
:1026A00062E370E083E00E94120C8091770388233C
:1026B00009F4F7C18CE198E00E94370CC5010E9433
:1026C0009E0CEFC19801225E3F4F80E0F80191918E
:1026D0008F018927E217F307C9F7D09077039F8D01
:1026E0009817A1F080918A0390918B03A0918C039D
:1026F000B0918D030196A11DB11D80938A03909323
:102700008B03A0938C03B0938D03B7CF809182038A
:1027100090918303A0918403B09185030196A11D3C
:10272000B11D8093820390938303A0938403B0939D
:1027300085036EE170E082E00E94120CEA80FB806B
:10274000FE24EF24FE240C811D8110270127102771
:10275000F801A4E0F695E795AA95E1F7EF7024E07B
:10276000E29FF0011124EE56FC4F80819181A281FD
:10277000B3810196A11DB11D80839183A283B38390
:10278000DD2081F180917D0381112CC08CE098E0E7
:102790000E94B90BB70190E080E040E10E94430C39
:1027A00082E098E00E94B90BB80190E080E040E13F
:1027B0000E94430C8FEF97E00E94B90BC80101976C
:1027C00082359105E8F5880F991FFC01E45FFE4F03
:1027D00080819181009711F00E94260C8DEF97E087
:1027E0000E94370C0231110509F427C308F05BC0C1
:1027F0000230110509F48EC130F50130110509F4DC
:102800001BC180918E0390918F03A0919003B09192
:1028100091030196A11DB11D80938E0390938F03A8
:10282000A0939003B093910380917703882309F4D8
:1028300038C18EED97E00E94B90B60E170E037C4BB
:102840008BED91E0C9CF0031110509F4F1C10131DF
:102850001105B9F60E94980A00916F031091700358
:102860002091710330917203601B710B820B930BEB
:10287000683E73408105910508F413C10E94980ACF
:1028800060936F037093700380937103909372034E
:102890008E818F3F09F017C28F818F3F09F013C2DD
:1028A0008DEA95E0FCC00032110509F461C378F4AB
:1028B0000331110509F0A5CF8E818F3F09F02AC39E
:1028C0008F818F3F09F026C380EE95E0E8C000338A
:1028D000110509F491C30035110509F092CF2E803E
:1028E0008F809884A984BA840B85EC85EDA73D84FC
:1028F0001E858F85C888D12CF12CE12CFE2CED2C67
:10290000DC2CCC24E82A8989C82A6A897B898C89AD
:102910009D890E94DD202B013C0180EC97E00E9404
:10292000370C8EEA97E00E94B90B6AE070E0822DC6
:102930000E94890C89EA97E00E94370C84E997E0AD
:102940000E94B90B115083EE91E0153040F4E12F55
:10295000F0E0EE0FFF1FE055FE4F808191810E9455
:10296000DA0C84E897E00E94B90B832D0E94900C4A
:1029700086E797E00E94B90B4AE050E0C701B60134
:102980000E94870C8FE697E00E94370C80E697E064
:102990000E94B90BC301B2010E94C80D8CE497E0FC
:1029A0000E94370C80E497E00E94B90BF1E081E3CC
:1029B00097E08F1611F08CE297E00E94370C84E3C9
:1029C00097E00E94B90B21E08FE197E0921611F099
:1029D0008AE197E00E94370C82E297E00E94B90BEF
:1029E00081E0A81268C38DE097E00E94370C80E177
:1029F00097E00E94B90BA1E08CEF96E0BA1611F0B7
:102A000087EF96E00E94370C8FEF96E00E94B90B9B
:102A100088EE96E0013011F083EE96E00E94370CCC
:102A20008BEE96E00E94B90BBDA580EE96E0B1302A
:102A3000B1F18BED96E033C00E811F8168857985F9
:102A40008A859B850E94DD206B017C0189EB94E0E7
:102A50000E94B90B6AE070E0802F0E94890C81EB24
:102A600094E00E94B90B1150153008F050C0E12FCE
:102A7000F0E0EE0FFF1FE055FE4F8081918100973F
:102A800011F00E94260C87EA94E00E94B90B4AE0FC
:102A900050E0C701B6010E94870C85EA94E00E94CD
:102AA000370C83EE93E00E94340B892B09F45AC74C
:102AB00018A61FA21AA619A61CA61BA66EEC71E0EA
:102AC000CE0187960E94E80E0E94F40A97FDF6C296
:102AD0008A30910509F4F2C289831A820BA51CA5DC
:102AE0000F5F1F4FB801CE0187960E94990E882371
:102AF00059F32FA138A58BA59CA5BE016F5F7F4F11
:102B0000820F931F0E94F2221CA70BA7DDCF83EE3A
:102B100091E0B7CF6E807F8088849984AA84BB843B
:102B20000C851D858E85CF84D12CF12CE12CFE2CBB
:102B3000ED2CDC2CCC24E82A8889C82A8AE595E08B
:102B40000E94370C80E595E00E94B90B81E0681285
:102B50006CC083E495E00E94370C86E495E00E9407
:102B6000B90BA1E083E395E07A1611F08EE295E0CF
:102B70000E94370C86E395E00E94B90BB1E083E236
:102B800095E08B1611F08EE195E00E94370C86E2FD
:102B900095E00E94B90BE1E084E195E09E1611F00A
:102BA0008FE095E00E94370C87E195E00E94B90B19
:102BB000F1E082E095E0AF1611F08DEF94E00E9415
:102BC000370C85E095E00E94B90B21E081ED94E09F
:102BD000B21611F08CEC94E00E94370C82EF94E076
:102BE0000E94B90B802F0E94900C89EE94E00E9405
:102BF000B90B115083EE91E0153040F4E12FF0E075
:102C0000EE0FFF1FE055FE4F808191810E94DA0C8C
:102C10008BED94E00E94B90B4AE050E0C701B60189
:102C20000E94870C84ED94E03ACF8EE395E093CF39
:102C3000CE80DF80DC24CD24DC2408851985102794
:102C4000012710278FEFC816D806D1F10F3F1007C4
:102C5000B9F1FF888FE895E00E94B90BB601DD0C51
:102C6000880B990B0E941F1E20E030E040E251E4E7
:102C70000E942C2041E050E00E94C60D88E895E0BB
:102C80000E94B90BB801110F880B990B0E941F1EEF
:102C900020E030E040E251E40E942C2041E050E08E
:102CA0000E94C60D86E895E00E94B90BB1E0FB12C8
:102CB00004C080E895E00E94B90B0E94330CF1CE6D
:102CC00082E795E0ECCE6E817F81762767277627B5
:102CD000072E000C880B990B0E941F1E20E030E08D
:102CE00048EC52E40E942C202B013C016885798538
:102CF000762767277627072E000C880B990B0E94F2
:102D00001F1E20E030E048EC52E40E942C204B01D2
:102D10005C016A857B85762767277627072E000C5E
:102D2000880B990B0E941F1E20E030E048EC52E413
:102D30000E942C206DA77EA78FA798AB6C857D8500
:102D4000762767277627072E000C880B990B0E94A1
:102D50001F1E20E030E048EC52E40E942C2069ABBA
:102D60007AAB8BAB9CAB6E857F8576276727762702
:102D7000072E000C880B990B0E941F1E20E030E0EC
:102D800048EC52E40E942C206DAB7EAB8FAB98AF29
:102D900068897989762767277627072E000C880BA4
:102DA000990B0E941F1E20E030E048EC52E40E9484
:102DB0002C206B017C0184EA95E00E94B90B42E073
:102DC00050E0C301B2010E94C60D82EA95E00E9464
:102DD000B90B42E050E0C501B4010E94C60D80EA83
:102DE00095E00E94B90B42E050E06DA57EA58FA54D
:102DF00098A90E94C60D8CE995E00E94B90B41E0AC
:102E000050E069A97AA98BA99CA90E94C60D8AE9FC
:102E100095E00E94B90B41E050E06DA97EA98FA911
:102E200098AD0E94C60D88E995E00E94B90B41E07B
:102E3000C701B6010E94EA0C40CF0E94980A009197
:102E40007303109174032091750330917603601B16
:102E5000710B820B930B603D77408105910508F45F
:102E600020CE0E94980A609373037093740380933A
:102E700075039093760318858E81813041F08BEC39
:102E800095E00E94B90B812F0E94900C0ACE6985B3
:102E90007A858B859C850E94DD204B015C016D85C8
:102EA0007E858F8598890E94DD206B017C0184ECF2
:102EB00095E00E94B90BC501B4010E941D1E20E0DF
:102EC00034E244E759E40E942C2020E030E044EB57
:102ED00052E40E94BF1F46E050E00E94C60D82EC03
:102EE00095E00E94B90BC701B6010E941D1E20E0AB
:102EF00034E244E759E40E942C2020E030E044E32F
:102F000053E40E94BF1F46E050E00E94C60D8BEBC9
:102F100095E0B7CFE884F984FE24EF24FE240C85E5
:102F20001D8510270127102785EF95E00E94B90B1A
:102F3000B70190E080E00E941D1E20E030E040E2FA
:102F400051E40E942C2041E050E00E94C60D8EEE1C
:102F500095E00E94B90BB80190E080E00E941D1E30
:102F600020E030E040E251E40E942C2041E062CFBA
:102F70008F819E819F3F29F48F3F19F483E296E071
:102F80008ECD0E811F81102701271027E884FB8436
:102F90008CE196E00E94B90BB80190E080E00E94BD
:102FA0001D1E20E030E048EC52E40E942C2042E05C
:102FB00050E00E94C60D89E196E00E94B90B6AE0DC
:102FC00070E08E2D0E94890C86E196E00E94B90B7C
:102FD00021E08BE096E0F21609F461CD8FE096E0F7
:102FE000F21608F45CCD82E0F81619F082E096E063
:102FF00056CD86E096E053CD6E807F80888499849C
:10300000AA84BB846C857D858E859F850E94DD208A
:103010006B017C01088919891027012710278DEB86
:1030200096E00E94370C81EB96E00E94B90B862D4A
:103030000E94900C81EA96E00E94B90B872D0E94B5
:10304000900C83E996E00E94B90B882D0E94900CA9
:1030500082E896E00E94B90B892D0E94900C8FE6C1
:1030600096E00E94B90BA1E088E596E0AA1611F05F
:1030700085E596E00E94370C8CE596E00E94B90B3E
:10308000B1E084E396E0BB1611F081E396E00E9484
:10309000370C88E496E00E94B90BC701B6010E9484
:1030A000C80D88E396E00E94B90B6AE070E0C801A1
:1030B0000E94CA0CF6CC88E097E097CCCFA0D8A4A9
:1030C000C114D10431F00BA51CA576010115110521
:1030D000B1F40FA118A50115110509F446C0D801D6
:1030E0008D918D01882309F440C0082E000C990BA6
:1030F0000E94C622F80131978083F1CF75015701F4
:10310000EFEFAE1ABE0AD7018C91082E000C990B76
:103110000E940C1E892B91F7015011090C0D1D1DE9
:10312000F8018081082E000C990B0E940C1E892B3F
:1031300031F00E151F0518F001501109F1CF0F5F86
:103140001F4FA8014E195F095CA74BA7CE14DF04DF
:1031500020F4B701C6010E94CE22EFA1F8A58BA5ED
:103160009CA5E80FF91F1082B4CF8BA59CA5892BD5
:1031700009F4F4C31AA219A21CA21BA21EA21DA22A
:103180006EEC71E0CE0181960E94E80E1A821982DF
:103190001C821B821E821D826BEE71E0CE010196A5
:1031A0000E94E80EABA4BCA4A114B10409F461C050
:1031B0008D809E808114910409F45BC0EDA0FEA077
:1031C000E818F9080FA118A5E114F104A1F4698128
:1031D0007A81C8010E9407238C01009709F449C035
:1031E00069A17AA14DA15EA10E94CE228DA19EA1CE
:1031F000080F191FECCFF7FC0FC069807A806501BA
:10320000C801B3010E940723009709F484C0880D08
:10321000991DCE0CDF1CF5CF680169817A81C80148
:103220000E9407235C01009701F14C01801A910A6A
:10323000A401B801C6010E94CE22C80CD91C69A104
:103240007AA14DA15EA1C6010E94CE228DA19EA1B0
:10325000C80ED91E0D811E810A0D1B1D8BA59CA5B4
:103260008E0D9F1D9CA78BA7D8CFB801C6010E94C9
:10327000F222CE0101960E94130FCE0181960E9488
:10328000130F6DEE71E0CE0187960E94C10E811181
:1032900009C062EF71E0CE0187960E94C10E8823BB
:1032A00009F4AFC08EE190E10E94370C8AED9FE0F7
:1032B0000E94370C89E19FE00E94370C85ED9EE06B
:1032C0000E94370C81E99EE00E94370C8DE49EE05D
:1032D0000E94370C89E09EE00E94370C85EC9DE04F
:1032E0000E94370C81E89DE00E94370C8DE39DE041
:1032F0000E94370C89EF9CE00E94370C85EB9CE024
:103300000E94370C81E79CE00E94370C80EB9BE029
:103310000E94370C23C3AC14BD0409F4AACF89A5BD
:103320009AA58C159D0568F4B6016F5F7F4FC801A3
:103330000E940922009709F49CCF98A78FA3DAA6D0
:10334000C9A60BA51CA50150110917FD92CF480174
:103350006D807E806114710409F48BCFABA4BCA492
:10336000A114B10409F485CFA614B70408F481CFE1
:103370000A151B0520F04501B1E08B1A9108CFA07A
:10338000D8A429803A80C6010FEF1FEF2601480C10
:10339000591C4816590678F0B1010E94072300977E
:1033A00051F09C012C193D098216930608F49801EE
:1033B00001968901EECF17FD5CCF600E711EC6012C
:1033C000860D971DA50146195709BC018E0D9F1D3D
:1033D0000E94D7228BA59CA58E0D9F1D9CA78BA715
:1033E0002FA138A5820F931FFC0110828FA198A5F1
:1033F00069A17AA14DA15EA1800F911F0E94CE22EA
:10340000A2CF64EF71E0CE0187960E94C10E8111B8
:103410003AC063EF72E0CE0187960E94C10E81111F
:1034200032C06AEF71E0CE0187960E94C10E811111
:1034300052C160E072E0CE0187960E94C10E8111F8
:103440004AC162E072E0CE0187960E94C10E8111EE
:1034500053C166E072E0CE0187960E94C10E8823B8
:1034600009F45BC11091790381E018271093790367
:103470008DE192E10E94B90B8AE192E1111148CFEE
:1034800086E192E145CF0E94980A0091D6031091FF
:10349000D7032091D8033091D903601B710B820BA5
:1034A000930B28EE33E040E050E00E944C1F4901AE
:1034B0005A01C090D203D090D303E090D403F0908F
:1034C000D503C114D104E104F104B1F00E94980ABB
:1034D0000091D2031091D3032091D4033091D503EE
:1034E000601B710B820B930B28EE33E040E050E041
:1034F0000E944C1F69017A018FEE9AE00E94370CFE
:103500008BEA9AE00E94370C8AEE99E00E94370C11
:1035100086ED99E00E94B90B4AE050E0C501B40184
:103520000E94870C8DEC99E00E94370C88EB99E0A3
:103530000E94B90B60917E0370917F03809180039C
:10354000909181030E94C80D83EA99E00E94B90B13
:10355000609182037091830380918403909185032D
:103560000E94C80D8CE899E00E94B90B6091860317
:103570007091870380918803909189030E94C80D00
:103580008AE799E00E94B90B60918A0370918B03DE
:1035900080918C0390918D030E94C80D85E699E07F
:1035A0000E94B90B60918E0370918F0380919003FC
:1035B000909191030E94C80D80907E0390907F03AC
:1035C000A0908003B090810381149104A104B10400
:1035D00061F16091820370918303809184039091E3
:1035E00085030E941D1E2B013C01C501B4010E94F0
:1035F0001D1E9B01AC01C301B2010E942C2020E0E2
:1036000030E048EC52E40E947E1E4B015C0181E5F3
:1036100099E00E94B90B41E050E0C501B4010E945D
:10362000C60D8FE499E00E94370C8091D2039091EF
:10363000D303A091D403B091D503892B8A2B8B2B74
:1036400071F08CE399E00E94B90B4AE050E0C701A9
:10365000B6010E94870C8FE299E00E94370C8BE242
:1036600099E00E94370C82E199E00E94370C0EE746
:1036700013E0C12CD12C7601F80184899589A689A3
:10368000B789892B8A2B8B2BB1F081E099E00E94BE
:10369000B90B40E1C701B6010E94430C8DEF98E0E1
:1036A0000E94B90BD80154966D917D918D919C919A
:1036B00057970E94C80D0C5F1F4FBFEFCB1ADB0A54
:1036C000EB0AFB0AE0E1CE16D104E104F104A1F615
:1036D0008CE398E01DCE1091770381E018271093BA
:1036E00077038CE592E10E94B90B89E592E1111113
:1036F0000FCE85E592E10CCE1091780381E018277A
:10370000109378038BE392E10E94B90B88E392E176
:103710001111FECD84E392E1FBCD6BE072E0CE01AE
:1037200087960E94C10E882389F010917A0381E068
:10373000182710937A0380E092E10E94B90B8DEF75
:1037400091E11111E5CD89EF91E1E2CD6FE072E0F9
:10375000CE0187960E94C10E81118DC067E172E093
:10376000CE0187960E94C10E182F811184C01A8243
:1037700019821C821B821E821D8269E172E0CE01C9
:1037800001960E94E80E4D815E818BA59CA5841751
:10379000950778F08FA198A5009759F069817A81F3
:1037A0006115710531F00E94F92211E0892B09F0B1
:1037B00010E0CE0101960E94130F11116DC061E25D
:1037C00072E0CE0187960E94C10E8111DDC068E9CA
:1037D00072E0CE0187960E94C10E8111D5C067E2CA
:1037E00072E0CE0187960E94C10E882309F4E6C0DC
:1037F00089E891E10E94370C8DE791E10E94B90BB5
:103800008EE390E00E94D50D8CE691E10E94B90B09
:1038100080E290E00E94D50D8CE591E10E94B90B09
:1038200081E090E00E94D50D8EE491E10E94B90BF9
:1038300090E080E00E94D50D80E491E10E94B90BF8
:1038400087E10E940E0E80FDB3C089E291E10E94E3
:10385000370C8DE291E10E94B90B83E00E940E0EBD
:10386000209199042250330B8217130609F0A3C04C
:1038700082E291E14DCD10917D0381E018271093F4
:103880007D038FED91E10E94B90B8CED91E1111157
:103890003FCD88ED91E13CCDEBA4FCA487E0C82EA0
:1038A000D12CF7E0EF16F10420F0670197E0E92E44
:1038B000F12C1A8219821C821B821E821D826EECE0
:1038C00071E0CE0101960E94E80E0BA51CA5E01642
:1038D000F10650F5C016D10608F48601EFA1F8A54F
:1038E000E00FF11FB08010828FA198A5E80EF91E9D
:1038F000E114F10479F0F70101900020E9F7319724
:103900006F01CE18DF08B601CE0101960E94990E14
:10391000811132C0CE0101960E94D60E8FA198A5CA
:10392000080F191FD801BC9240E150E070E060E040
:1039300089819A810E94F51C6B0170937C036093CE
:103940007B038AEB91E10E94B90B60E170E0C60154
:103950000E94CA0CCE0101960E94130FCE018796D9
:103960000E94130F61E070E080E090E00E94650A21
:103970000E94F40B0C948312DE82CD82B701898100
:103980009A810E94F222CACFEEE7F3E08CE5DF01D4
:103990001D928A95E9F70E94980A6093D603709366
:1039A000D7038093D8039093D90380EA91E1B0CCF8
:1039B00086E291E14CCF8FE191E1AACC8BA59CA549
:1039C000892B61F284E091E10E94B90B4BA55CA5C3
:1039D0006FA178A583EE93E00E94A40A82E091E1B2
:1039E0000E94370C8FED90E193CCB0E0A0E0EBEFBC
:1039F000FCE10C947A1F5C016B017A016115710581
:103A000019F0FB0191838083E114F10451F0C701A7
:103A10000297839730F040E030E020E090E072C001
:103A20005E01E5012196F5011081812F90E00E9451
:103A30000C1E892BA9F71D3201F52196F501118184
:103A400001E0E114F10409F4DAC0F0E1EF16F10449
:103A500009F082C0103359F488818F7D883509F0D0
:103A600076C0198122960260F0E1EF2EF12C812CB4
:103A7000912CA12C88E0B82E8CC01B3221F4E501DA
:103A80002296F501118100E0DCCFEAE0EE16F104A8
:103A900009F4BBC0F0E1EF16F10409F06DC0E7CF07
:103AA00078E0E72EF12C812C912CA12C60E1B62E30
:103AB00070C03FE9310F3A3128F439EA332E80C023
:103AC00021E09AC0302F3170C114D10431F022238B
:103AD00009F12197F601D183C08327FF21C060E05F
:103AE00070E080E090E8311104C06FEF7FEF8FEF5E
:103AF0009FE722E230E03093A5042093A404462FF0
:103B0000372F282F642F732F822FCDB7DEB7E1E137
:103B10000C94961F01FF04C02297F601D183C08345
:103B2000332341F090958095709561957F4F8F4F2D
:103B30009F4FE5CF97FFE3CF82E290E09093A504FB
:103B40008093A4046FEF7FEF8FEF9FE7D8CF10E350
:103B5000E114F10409F4A4CF28E0E216F10409F419
:103B6000A2CF0CF092CF812C912CA12CE0E4BE2EA0
:103B700082E0E816F10469F060E070E080E090E82F
:103B800097010F2C000C440B550B0E944C1F490150
:103B90005A0120E060E070E0CB0127010F2C000CFF
:103BA00066087708FE0150ED352E310E39E03315E9
:103BB00040F43FEB310F3A3108F07BCF49EC342E23
:103BC000310E3E141F040CF07DCF27FD15C0861664
:103BD0009706A806B90678F0A30192010E943C1F3F
:103BE000630D711D811D911D61307105810520E8F6
:103BF000920708F465CF2FEF21961081D3CF1033B1
:103C000009F42ACF2AE0E22EF12C9CEC892E982C84
:103C1000A82C9CE0B92EBDCF91110C94151E8032BA
:103C200019F089508550C8F7089599278827089575
:103C30000E945A1E08F481E00895E89409C097FB99
:103C40003EF490958095709561957F4F8F4F9F4F73
:103C50009923A9F0F92F96E9BB279395F6958795B7
:103C600077956795B795F111F8CFFAF4BB0F11F47A
:103C700060FF1BC06F5F7F4F8F4F9F4F16C0882321
:103C800011F096E911C0772321F09EE8872F762F57
:103C900005C0662371F096E8862F70E060E02AF098
:103CA0009A95660F771F881FDAF7880F9695879584
:103CB00097F90895990F0008550FAA0BE0E8FEEF59
:103CC00016161706E807F907C0F012161306E407E0
:103CD000F50798F0621B730B840B950B39F40A26D9
:103CE00061F0232B242B252B21F408950A2609F4B7
:103CF000A140A6958FEF811D811D08950E94911E00
:103D00000C94021F0E94F41E38F00E94FB1E20F04B
:103D1000952311F00C94EB1E0C94F11E11240C94BD
:103D2000361F0E94131F70F3959FC1F3950F50E04B
:103D3000551F629FF001729FBB27F00DB11D639F5D
:103D4000AA27F00DB11DAA1F649F6627B00DA11D03
:103D5000661F829F2227B00DA11D621F739FB00DA9
:103D6000A11D621F839FA00D611D221F749F332719
:103D7000A00D611D231F849F600D211D822F762FB2
:103D80006A2F11249F5750409AF0F1F088234AF08F
:103D9000EE0FFF1FBB1F661F771F881F91505040FB
:103DA000A9F79E3F510580F00C94EB1E0C94361F32
:103DB0005F3FE4F3983ED4F3869577956795B79582
:103DC000F795E7959F5FC1F7FE2B880F911D96959C
:103DD000879597F9089597F99F6780E870E060E00C
:103DE00008959FEF80EC089500240A941616170694
:103DF00018060906089500240A94121613061406DC
:103E000005060895092E0394000C11F4882352F03E
:103E1000BB0F40F4BF2B11F460FF04C06F5F7F4FF6
:103E20008F4F9F4F089557FD9058440F551F59F0DD
:103E30005F3F71F04795880F97FB991F61F09F3F97
:103E400079F087950895121613061406551FF2CFC0
:103E50004695F1DF08C0161617061806991FF1CF10
:103E600086957105610508940895E894BB27662737
:103E70007727CB0197F90895DB018F939F930E94D9
:103E80006E1FBF91AF91A29F800D911DA39F900DBA
:103E9000B29F900D11240895A1E21A2EAA1BBB1BFC
:103EA000FD010DC0AA1FBB1FEE1FFF1FA217B30706
:103EB000E407F50720F0A21BB30BE40BF50B661F1C
:103EC000771F881F991F1A9469F7609570958095E0
:103ED00090959B01AC01BD01CF0108950E94B01FD8
:103EE000A59F900DB49F900DA49F800D911D11244E
:103EF00008952F923F924F925F926F927F928F928E
:103F00009F92AF92BF92CF92DF92EF92FF920F9368
:103F10001F93CF93DF93CDB7DEB7CA1BDB0B0FB672
:103F2000F894DEBF0FBECDBF09942A88398848882F
:103F30005F846E847D848C849B84AA84B984C884C5
:103F4000DF80EE80FD800C811B81AA81B981CE0FBC
:103F5000D11D0FB6F894DEBF0FBECDBFED010895A1
:103F6000A29FB001B39FC001A39F700D811D1124BA
:103F7000911DB29F700D811D1124911D08955058FF
:103F8000BB27AA270E94D71F0C94021F0E94F41E71
:103F900038F00E94FB1E20F039F49F3F19F426F4FC
:103FA0000C94F11E0EF4E095E7FB0C94EB1EE92F48
:103FB0000E94131F58F3BA17620773078407950707
:103FC00020F079F4A6F50C94351F0EF4E0950B2E35
:103FD000BA2FA02D0B01B90190010C01CA01A0015B
:103FE0001124FF27591B99F0593F50F4503E68F1B6
:103FF0001A16F040A22F232F342F4427585FF3CFF7
:10400000469537952795A795F0405395C9F77EF4C7
:104010001F16BA0B620B730B840BBAF09150A1F010
:10402000FF0FBB1F661F771F881FC2F70EC0BA0F96
:10403000621F731F841F48F4879577956795B7951E
:10404000F7959E3F08F0B0CF9395880F08F0992719
:10405000EE0F9795879508950E9440200C94021FBB
:104060000E94FB1E58F00E94F41E40F029F45F3FAE
:1040700029F00C94EB1E51110C94361F0C94F11E78
:104080000E94131F68F39923B1F3552391F3951BF5
:10409000550BBB27AA2762177307840738F09F5F69
:1040A0005F4F220F331F441FAA1FA9F335D00E2ED6
:1040B0003AF0E0E832D091505040E695001CCAF743
:1040C0002BD0FE2F29D0660F771F881FBB1F261706
:1040D00037074807AB07B0E809F0BB0B802DBF01DD
:1040E000FF2793585F4F3AF09E3F510578F00C94AC
:1040F000EB1E0C94361F5F3FE4F3983ED4F3869595
:1041000077956795B795F7959F5FC9F7880F911DCC
:104110009695879597F90895E1E0660F771F881FB8
:10412000BB1F621773078407BA0720F0621B730B6B
:10413000840BBA0BEE1F88F7E09508950E941B1FB1
:1041400088F09F5798F0B92F9927B751B0F0E1F058
:10415000660F771F881F991F1AF0BA95C9F714C008
:10416000B13091F00E94351FB1E008950C94351FD5
:10417000672F782F8827B85F39F0B93FCCF3869541
:1041800077956795B395D9F73EF49095809570959E
:1041900061957F4F8F4F9F4F08950E945A1E08F4DC
:1041A0008FEF08950E945A1E880B990B0895EE0F09
:1041B000FF1F0590F491E02D099469279627692740
:1041C00078278727782708950F931F93CF93DF933E
:1041D0008230910510F482E090E0E091A804F09123
:1041E000A90430E020E0B0E0A0E0309799F4211578
:1041F000310509F44AC0281B390B24303105D8F5A4
:104200008A819B816115710589F1FB01938382830A
:10421000FE0111C040815181028113814817590765
:10422000E0F04817590799F4109761F012960C9333
:10423000129713961C933296CF01DF91CF911F9165
:104240000F9108950093A8041093A904F4CF2115A9
:10425000310551F04217530738F0A901DB019A01EB
:10426000BD01DF01F801C1CFEF01F9CF9093A9049F
:104270008093A804CDCFFE01E20FF31F81939193A9
:104280002250310939832883D7CF2091A604309159
:10429000A704232B41F420910201309103013093B4
:1042A000A7042093A604209100013091010121155B
:1042B000310541F42DB73EB74091040150910501FD
:1042C000241B350BE091A604F091A704E217F30735
:1042D000A0F42E1B3F0B2817390778F0AC014E5F76
:1042E0005F4F2417350748F04E0F5F1F5093A70408
:1042F0004093A604819391939FCFF0E0E0E09CCFA0
:10430000CF93DF930097E9F0FC013297138212827A
:10431000A091A804B091A904ED0130E020E010972D
:10432000A1F420813181820F931F2091A604309146
:10433000A7042817390709F061C0F093A704E09398
:10434000A604DF91CF910895EA01CE17DF07E8F5C3
:104350004A815B819E0141155105B1F7E901FB835B
:10436000EA8349915991C40FD51FEC17FD0761F4F9
:10437000808191810296840F951FE901998388833A
:10438000828193819B838A83F0E0E0E012968D9195
:104390009C9113970097B9F52D913C911197CD0100
:1043A0000296820F931F2091A6043091A70428172C
:1043B000390739F6309751F51092A9041092A804E4
:1043C000B093A704A093A604BCCFD383C28340813B
:1043D0005181840F951FC817D90761F44E5F5F4F55
:1043E00088819981480F591F518340838A819B811D
:1043F000938382832115310509F0B0CFF093A9048E
:10440000E093A8049ECFFD01DC01C0CF138212828D
:10441000D7CFB0E0A0E0EFE0F2E20C947B1F8C017C
:10442000009751F4CB010E94E4208C01C801CDB764
:10443000DEB7E0E10C94971FFC01E60FF71F9C012B
:1044400022503109E217F30708F49DC0D901CD913C
:10445000DC911197C617D70798F0C530D10530F316
:10446000CE0104978617970708F3C61BD70B229730
:10447000C193D1936D937C93CF010E948021D6CFBD
:104480005B01AC1ABD0A4C018C0E9D1EA091A804C4
:10449000B091A904512C412CF12CE12C109731F54D
:1044A0008091A6049091A7048815990509F05CC035
:1044B0004616570608F058C08091000190910101FE
:1044C000009741F48DB79EB74091040150910501CA
:1044D000841B950BE817F90708F055C0F093A70463
:1044E000E093A604F90171836083A0CF8D919C9124
:1044F000119712966C90129713967C901397A815AB
:10450000B90559F56C0142E0C40ED11CCA14DB0494
:1045100020F1AC014A195B09DA011296159780F077
:104520006282738251834083D9016D937C93E1143D
:10453000F10471F0D7011396FC93EE93129776CFA6
:1045400022968C0F9D1FF90191838083F301EFCF99
:10455000F093A904E093A80469CF4816590608F41B
:104560002C017D01D3019ACFCB010E94E4207C0174
:10457000009749F0AE01B8010E94CE22C8010E9406
:104580008021870153CF10E000E050CF91110895B2
:1045900081548A5108F4805E855A0895FB01DC013C
:1045A00002C001900D9241505040D8F7089568170D
:1045B000790768F4FB01DC01E40FF51FA40FB51FB8
:1045C00002C002900E9241505040D8F708950C94CA
:1045D000CE22FB01DC018D91019080190110D9F3ED
:1045E000990B0895FB01DC0101900D920020E1F789
:1045F0000895FB01DC014150504030F08D91019055
:10460000801919F40020B9F7881B990B0895FB0154
:1046100051915523A9F0BF01DC014D91451741117E
:10462000E1F759F4CD010190002049F04D9140157A
:104630004111C9F3FB014111EFCF81E090E00197F7
:064640000895F894FFCF7D
:104646000000AA0480004546454630002D02390286
:1046560047025402DB01DB01DB01DB01DB01DB018D
:10466600DB01DB01DB01DB01DB01620270027902A7
:1046760086029202DB01DB01DB01DB01DB01DB01F0
:10468600DB01DB01DB01DB01DB019A02A502B202E1
:10469600BF02DB01DB01DB01DB01DB01DB01DB014F
:1046A600DB01DB01DB01DB01DB01CE02DB02EA021F
:1046B600DB01DB01DB01DB01DB01DB01DB01DB0114
:1046C600DB01DB01DB01DB01DB01F5020403130384
:1046D600DB01DB01DB01DB01DB01DB01DB01DB01F4
:1046E600DB01DB01DB01DB01DB011D032A033603F2
:1046F60042034A0357035F036503000000006C0B87
:10470600A40AD10AD40B340BE00A260B0D0A006E5C
:10471600616E00696E66006F766600556E6B6E6F31
:10472600776E00554E4B4E4F574E000D0068656C28
:104736007000680073746174730064656275670065
:104746006400686578006A736F6E00637376006351
:104756006F6D7061637400630064657669636520DC
:1047660000726573657400726164696F00537973D2
:1047760074656D2050696E670053797374656D209A
:104786005374617475730053797374656D20457243
:10479600726F720053797374656D20436F6E66692C
:1047A6006700456E7669726F6E6D656E74616C003A
:1047B600494D5520446174610047505320506F7332
:1047C6006974696F6E00416972205175616C697414
:1047D60079005765617468657200424D53205374C1
:1047E6006174757300506F776572205374617475C8
:1047F6007300536F6C617220537461747573004556
:104806006E657267792053746F72616765005261D5
:1048160064696F20537461747573004E6574776FA5
:10482600726B2053746174757300436F6D6D205302
:1048360074617473004D697373696F6E205374618C
:10484600747573004F7065726174696F6E73204C76
:104856006F670054656C656D6574727900486561B3
:104866006C746820436865636B004D61696E74659E
:104876006E616E63650043616C6962726174696F33
:104886006E005354414E44425900494E49544941E1
:104896004C495A494E470052554E4E494E470045DF
:0E48A60052524F520053485554444F574E0043
:00000001FF
