:100000000C94C3000C94EB000C94EB000C94EB00EC
:100010000C94EB000C94EB000C94EB000C94EB00B4
:100020000C94EB000C94EB000C94EB000C94EB00A4
:100030000C94EB000C94EB000C94EB000C94EB0094
:100040000C94F6040C94EB000C9466050C9440059B
:100050000C94EB000C94EB000C94EB000C94EB0074
:100060000C94EB000C94EB000C94EB000C94EB0064
:100070000C94EB000C94EB000C94EB000C94EB0054
:100080000C94EB000C94EB000C94EB000C94EB0044
:100090000C94EB000C94EB000C94EB000C94EB0034
:1000A0000C94EB000C94EB000C94EB000C94EB0024
:1000B0000C94EB000A0B0C0D0E0F5472616E736DF5
:1000C000697373696F6E206661696C6564206F7215
:1000D0002074696D6564206F7574002075732E201F
:1000E00053656E743A200054696D6520746F2074F6
:1000F00072616E736D6974203D20005472616E737D
:100100006D697373696F6E2073756363657373666E
:10011000756C2120000A0D0E090003020000040581
:1001200008000000000000000000000000000000C7
:1001300000000000250028002B002E000000000019
:10014000240027002A002D000404040404040404ED
:100150000202020202020303030303030202030575
:100160000505050102040810204080010204081062
:100170002001020408102040804001020408000110
:1001800002030405980511241FBECFEFD8E0DEBF9F
:10019000CDBF11E0A0E0B1E0EEEEF4E102C00590C9
:1001A0000D92A637B107D9F722E0A6E7B1E001C06A
:1001B0001D92AE37B207E1F710E0C3ECD0E004C007
:1001C0002197FE010E946F0AC23CD107C9F70E9425
:1001D000E9050C94750A0C94000090E0FC01ED59BF
:1001E000FE4F2491885B9E4FFC018491882399F0F7
:1001F00090E0880F991FFC01E45CFE4FA591B4913B
:10020000FC01E05DFE4F859194918FB7F894EC91DD
:10021000E22BEC938FBF0895282F30E0F901EB5EBD
:10022000FE4F9491F901ED59FE4F8491285B3E4FAA
:10023000F9012491222309F42EC09923D9F0925078
:100240009D30C0F4E92FF0E0E85DFE4F0C946F0A9A
:100250006E01720135014C013A013A01500156011B
:100260005A0160013A0164016A01909180009F7710
:1002700090938000E22FF0E0EE0FFF1FE05DFE4F55
:10028000A591B4919FB7F894EC9161112EC080951F
:100290008E238C939FBF0895909180009F7DE8CF1F
:1002A0009091B0009F779093B000E4CF9091B00010
:1002B0009F7DF9CF909190009F7790939000DACF37
:1002C000909190009F7DF9CF9091A0009F7790939F
:1002D000A000D0CF9091A0009F7DF9CF94B59F77DB
:1002E00094BDC8CF94B59F7DFBCF8E2BD2CF682F06
:1002F000809160029091610289130C940C01089521
:10030000000000008330910528F0880F991F0597A1
:100310000197F1F70895CF93DF93CEE5D2E0682FF0
:100320008B810E940C018A8D9B8DDF91CF910C9463
:10033000800181E00C948B013FB7F8948091BC015F
:100340009091BD01A091BE01B091BF0126B5A89BBF
:1003500005C02F3F19F00196A11DB11D3FBFBA2F57
:10036000A92F982F8827BC01CD01620F711D811D17
:10037000911D43E0660F771F881F991F4A95D1F79B
:1003800008958F929F92AF92BF92CF92DF92EF9299
:10039000FF924B015C010E949C016B017C010E9459
:1003A0009C016C197D098E099F09683E7340810587
:1003B0009105A8F321E0821A9108A108B10888EEFE
:1003C000C80E83E0D81EE11CF11C81149104A10425
:1003D000B10429F7FF90EF90DF90CF90BF90AF90DE
:1003E0009F908F900895AF92BF92CF92DF92EF923D
:1003F000FF920F931F93CF93DF936C017B018B01CF
:10040000040F151FEB015E01AE18BF08C017D1071E
:1004100059F06991D601ED91FC910190F081E02DA8
:10042000C6010995892B79F7C501DF91CF911F91FD
:100430000F91FF90EF90DF90CF90BF90AF90089515
:10044000FC01538D448D252F30E0842F90E0821BDA
:10045000930B541710F0CF96089501970895FC015F
:10046000918D828D981761F0A28DAE0FBF2FB11DB7
:100470005D968C91928D9F5F9F73928F90E008950F
:100480008FEF9FEF0895FC01918D828D981731F0C9
:10049000828DE80FF11D858D90E008958FEF9FEF1D
:1004A0000895FC01918D228D892F90E0805C9F4FF3
:1004B000821B91098F739927089580EC91E00E9427
:1004C000510221E0892B09F420E0822F0895FC01DC
:1004D000A48DA80FB92FB11DA35ABF4F2C91848DA5
:1004E00090E001968F739927848FA689B7892C9302
:1004F000A089B1898C91837080648C93938D848D55
:10050000981306C00288F389E02D80818F7D808357
:100510000895EF92FF920F931F93CF93DF93EC0117
:1005200081E0888F9B8D8C8D98131AC0E889F9899A
:10053000808185FF15C09FB7F894EE89FF8960839D
:10054000E889F98980818370806480839FBF81E01E
:1005500090E0DF91CF911F910F91FF90EF90089560
:10056000F62E0B8D10E00F5F1F4F0F731127E02E3B
:100570008C8D8E110CC00FB607FCFACFE889F98973
:10058000808185FFF5CFCE010E946702F1CFEB8D10
:10059000EC0FFD2FF11DE35AFF4FF0829FB7F89447
:1005A0000B8FEA89FB8980818062CFCF0F931F93E5
:1005B000CF93DF938C01D0E0C0E0F801EC0FFD1F7A
:1005C0006491662341F080EC91E00E948902892BBE
:1005D00011F02196F2CFCE01DF91CF911F910F91B3
:1005E0000895CF93DF93EC01888D8823B9F0AA8911
:1005F000BB89E889F9898C9185FD03C0808186FDDE
:100600000DC00FB607FCF7CF8C9185FFF2CF80812C
:1006100085FFEDCFCE010E946702E9CFDF91CF9138
:10062000089580E090E0892B29F00E945D028111FD
:100630000E94000080E090E0892B49F080E090E08B
:10064000892B29F00E94000081110C94000008956C
:100650008EBD00000DB407FEFDCF8EB50895CF937B
:10066000CFB7F89480917601811124C0E2E5F1E0E2
:100670008491EDE6F1E09491E82FF0E0EE0FFF1F9A
:10068000E45CFE4FA591B491EC91E92321F461E083
:100690008AE00E940C018AE00E94ED008CB5806126
:1006A0008CBD8CB580648CBD8DE00E94ED008BE02C
:1006B0000E94ED00809176018F5F80937601CFBF1D
:1006C000CF910895FC0101900020E9F73197AF0127
:1006D000481B590BBC0180EC91E00C94F3018F9204
:1006E0009F92AF92BF920F931F93CF93DF93CDB79B
:1006F000DEB7A1970FB6F894DEBF0FBECDBF19A22B
:10070000423008F44AE08E010F5D1F4F842E912C79
:10071000B12CA12CA50194010E94FC09E62FB9017E
:10072000CA01EA30F4F4E05DD801EE938D01232B89
:10073000242B252B79F790E080E0109719F0CD015C
:100740000E946203A1960FB6F894DEBF0FBECDBF24
:10075000DF91CF911F910F91BF90AF909F908F909D
:100760000895E95CE1CFCF93DF930E946203EC012F
:1007700088E191E00E9462038C0F9D1FDF91CF9171
:1007800008950F931F9300916202109163022091CC
:1007900064023091650240E059E06DE370E080E072
:1007A000041715072607370740F476956795579580
:1007B00047958F5F8630A1F787E0982F906A9695CE
:1007C000809581709CBD8DBD80E01F910F910C9430
:1007D0008B01CF93DF93D82FC62F0E94C1038D2F9B
:1007E00080620E942803809366028C2F0E94280357
:1007F000DF91CF910C94990160916D0261FD0AC067
:10080000626060936D0280E00E94E90388E893E1F2
:100810000C9480010895CF93C82F0E94C1038C2FA0
:100820000E942803809366028FEF0E942803C82F3E
:100830000E9499018C2FCF910895CF93DF93EC0103
:1008400086E00E940B04877DC230D105E1F44BE9BC
:1008500050E060E070E04093740250937502609342
:10086000760270937702C0E2C82B6C2F86E00E945C
:10087000E90386E00E940B0491E0C81390E0892F01
:10088000DF91CF910895219771F045E550E060E048
:1008900070E04093740250937502609376027093F7
:1008A0007702C0E0E1CF41E450E060E070E04093C7
:1008B0007402509375026093760270937702C8E0D9
:1008C000D3CFFF920F931F93CF93DF93C82FF62EB2
:1008D000072F142F0E94C1038C2F80620E942803CF
:1008E00080936602CF2DD02F115020F089910E9465
:1008F0002803FACFDF91CF911F910F91FF900C94B5
:1009000099010E94FC0360916D02616060936D0229
:1009100080E00E94E90360E787E00E94E90381E04C
:100920000E94770180916F02882339F04091710213
:1009300068E672E08AE00C94610482E00E940B0495
:10094000EEE7F1E0E49121E030E001C0220FEA950A
:10095000EAF72095622F682382E00E94E903109253
:100960006F020895CF93C82F0E94C1038C2F0E945D
:10097000280380936602CF910C94990181EE0E9426
:10098000B20480916602089580E00E947701809110
:100990007402909175020E94800180917002811111
:1009A0000E94BE0460916D026E7F60936D0280E0D4
:1009B0000E94E90382E00E940B04EEE7F1E0E4917B
:1009C00061E070E001C0660FEA95EAF7682B82E00B
:1009D0000C94E9030E94C10380E50E9428038093E0
:1009E000660283E70E9428030C9499011F920F92DC
:1009F0000FB60F9211242F933F938F939F93AF9332
:100A0000BF938091B8019091B901A091BA01B091C2
:100A1000BB013091B70126E0230F2D3768F129E89B
:100A2000230F0396A11DB11D2093B7018093B80138
:100A30009093B901A093BA01B093BB018091BC011E
:100A40009091BD01A091BE01B091BF010196A11D81
:100A5000B11D8093BC019093BD01A093BE01B093E2
:100A6000BF01BF91AF919F918F913F912F910F90B7
:100A70000FBE0F901F9018950296A11DB11DD4CFE7
:100A80001F920F920FB60F9211242F933F934F9303
:100A90005F936F937F938F939F93AF93BF93EF93E6
:100AA000FF9380EC91E00E946702FF91EF91BF916C
:100AB000AF919F918F917F916F915F914F913F91F6
:100AC0002F910F900FBE0F901F9018951F920F92AD
:100AD0000FB60F9211242F938F939F93EF93FF9351
:100AE000E091D001F091D1018081E091D601F091A7
:100AF000D70182FD1BC090818091D9018F5F8F73D8
:100B00002091DA01821741F0E091D901F0E0E05440
:100B1000FE4F958F8093D901FF91EF919F918F9117
:100B20002F910F900FBE0F901F9018958081F4CFDA
:100B3000E0ECF1E01382128288EE93E0A0E0B0E0F6
:100B400084839583A683B7838AE091E09183808331
:100B500085EC90E09587848784EC90E09787868782
:100B600080EC90E0918B808B81EC90E0938B828B7A
:100B700082EC90E0958B848B86EC90E0978B868B53
:100B8000118E128E138E148EEEE5F2E087E08283D2
:100B900088E0838380E896E9A8E9B0E084839583C0
:100BA000A683B78380E28187108A118A85E0838BD0
:100BB00081E0848B158A85E090E0A0E0B0E0828F30
:100BC000938FA48FB58F8DE592E0918380831286F9
:100BD0000895789484B5836084BD85B5836085BDB0
:100BE00080916E00816080936E0082E0809381002E
:100BF000809181008160809381008091800081607C
:100C0000809380008091B10084608093B1008091D6
:100C1000B00081608093B0008091910083608093E8
:100C20009100809190008160809390008091A1005C
:100C300083608093A1008091A00081608093A000D8
:100C400086E880937A001092C10004B603FC06C0C7
:100C500080E090E00E94E40980937E0214BE68EE7A
:100C600073E080E090E00E94C101E091D001F0913A
:100C7000D10182E08083E091CC01F091CD0110821E
:100C8000E091CE01F091CF0187E680831092D801E8
:100C9000E091D401F091D50186E08083E091D2010A
:100CA000F091D301808188698083E091D201F09135
:100CB000D30180818F7D80830E942F0382E00E9478
:100CC000ED0083E00E94ED0084E00E94ED000E94B0
:100CD0002F03809160028F3F09F4EDC09091610273
:100CE0009F3F09F4E8C0891731F00E94ED00809120
:100CF00061020E94ED0080E00E94770181E00E9485
:100D00008B0165E070E080E090E00E94C1016FE53A
:100D100084E00E94E90390E080E00E941D048DE1E0
:100D20000E940B04C82F0E94EA048DE10E940B046C
:100D300091E0C81390E090936E02882341F0C813AD
:100D400002C00E94EA0460E08DE10E94E903109273
:100D5000700260E08CE10E94E903109272026FE37E
:100D600081E00E94E90363E082E00E94E90380E2FF
:100D700080936702C1E1609167028C2F0E94E903B2
:100D8000CF5FC731C1F763E083E00E94E90385E0EC
:100D9000809371026CE40E94E90360E787E00E949F
:100DA000E90382EE0E94B2040E94BE046CE080E07F
:100DB0000E94E90380E00E940B0480936D020E9470
:100DC000FC0380916D028E3009F075C06EE385E002
:100DD0000E94E90386E00E940B04887F682F63600D
:100DE00086E00E94E90380E280936702C1E160919E
:100DF00067028C2F0E94E903CF5FC731C1F7409192
:100E0000710260E071E08AE00E9461044091710229
:100E100060E071E080E10E946104E5EBF0E0849124
:100E20004091710260E071E00E94610482E00E94E2
:100E30000B04EFE7F1E0E49161E070E001C0660FC0
:100E4000EA95EAF7682B82E00E94E90390E080E0EF
:100E50000E941D040E94810461E082E00E940C0156
:100E600007E911E020E2D22E87E10E940B0480FD09
:100E70008AC161E083E00E940C01C0916702809109
:100E80007202882319F0C13208F0C0E20E94C10347
:100E900081E60E9428038093660297E9E92E91E09B
:100EA000F92EC15008F461C18FEF0E942803F701A9
:100EB00081937F01F6CF61E082E00E940C0168EE31
:100EC00073E080E090E00E94C10160E082E00E9457
:100ED0000C0168EE73E080E090E00E94C1018BE1BC
:100EE00091E00E94B303E7CF8091770161E0853202
:100EF00009F09BC0809178018E3509F096C084E09E
:100F00000E940C0160E082E00E940C018091790156
:100F1000803349F580917A01803339F48CE291E095
:100F20000E94B3030E9411039FCF8133B1F484E385
:100F300091E00E94620360917E0270E090E080E0A8
:100F40004AE00E946F036CE280EC91E00E9489020B
:100F50008AE191E00E946203E5CF823309F05CC030
:100F60008AE391E0DDCF893309F056C080917A01A0
:100F7000803359F580917C01873421F580917D0182
:100F8000823501F580917E018335E1F440E150E046
:100F900070E060E080E891E00E94ED084B015C01A8
:100FA00085E491E00E946203C501B4018827992776
:100FB00040E10E946F0388E191E00E94620388E5AE
:100FC00091E0AECF80E691E0C5CF813329F58091E5
:100FD0007C01805360917D016053C62FFAE08F9FA2
:100FE000C00D112487E691E00E9462036C2F70E02F
:100FF00090E080E04AE00E946F0388E191E00E9467
:1010000062030E94C4046EE385E00E94E9030E942B
:1010100081048DE691E084CF60E084E00E940C01C1
:1010200061E082E00E940C017DCF84E00E940C010F
:1010300061E070E080E090E00E94C10187E791E00C
:101040000E94B3030E94C4040E949C014B015C01F6
:1010500080917202D0E2C0E0811107C0C0916702A6
:10106000DC2FC13208F0D0E2CD1B0E94C10380EA20
:101070000E94280380936602D15030F0F7018191DD
:101080007F010E942803F8CFC15020F080E00E9429
:101090002803FACF0E94990181E00E9477018FB75F
:1010A000F8944090B8015090B9016090BA017090E6
:1010B000BB018FBF8FEF0E94B204809166028073E4
:1010C000E1F52FB7F8948091B8019091B901A09102
:1010D000BA01B091BB012FBF84199509A609B709C0
:1010E00080369105A105B10528F381E08093730254
:1010F000C0E00E949C012B013C01CC2369F18BEFE5
:1011000090E00E94D60287EE90E00E94D602C301D2
:10111000B201681979098A099B094AE00E946F03A4
:101120008BED90E00E94D60287E791E00E94B30326
:101130000E94810460E084E075CF80E00E94770126
:1011400060E787E00E94E90380916602C1E084FFC6
:10115000D0CF0E94BE04CCCF8AEB90E00E94D60292
:1011600088E191E00E946203E3CF0E94990160E46C
:1011700087E00E94E90387E991E00E94B30360E001
:1011800083E00E940C0180EC91E00E945102892BC7
:1011900009F4C8CE6AE070E080E090E00E94C101EE
:1011A00087E7E82E81E0F82EF701D1920E171F078E
:1011B000E1F780EC91E00E9451025C01C7E7D1E0C9
:1011C000CE01875791408A159B050CF08DCE80EC9F
:1011D00091E00E942F028993F3CFB0E0A0E0E3EF0B
:1011E000F8E00C942A0A5C016B017A016115710523
:1011F00019F0FB0191838083E114F10449F0C701E8
:101200000297839728F060E070E0CB019CC05E01FC
:10121000E5012196F5011081812F90E00E94D80907
:10122000892BA9F71D3209F056C02196F5011181CD
:1012300001E0E114F10409F4AEC0F0E1EF16F104AD
:1012400009F08EC0103341F488818F7D883509F014
:1012500083C0198122960260E0E1EE2EF12C8824F1
:101260008A94982CA82CFFE0BF2E20E060E070E06C
:10127000CB0127010F2C000C66087708FE0150ED0A
:10128000352E310E39E0331538F43FEB310F3A315A
:10129000A0F549EC342E310E3E141F04BCF52F3F4F
:1012A000B9F086169706A806B90670F1A301920157
:1012B0000E94EC09232D30E050E040E0620F731FE4
:1012C000841F951F6217730784079507E8F021E0D4
:1012D00021961081D3CF1B3221F4E5012296F5012E
:1012E000118100E0A6CF78E0E72EF12C88248A94C3
:1012F000982CA82C6FE1B62EB8CF3FE9310F3A31C8
:1013000028F439EA332EC7CF2FEFE2CFC114D1042E
:1013100031F02223E9F02197F601D183C08300FF49
:1013200007C090958095709561957F4F8F4F9F4F27
:101330002F3F49F482E290E090937D0280937C02FB
:101340006FEF7FEFCB01CDB7DEB7E1E10C94460A3A
:1013500001FFE5CF2297E0CF10E3E114F10419F289
:101360003AE0E316F104E9F080E1E816F10409F44B
:1013700073CFE8E0EE16F10409F4B8CF6FEF7FEF1A
:10138000CB0197010F2C000C440B550B0E94FC095C
:1013900049015A016ACF103309F456CF9AE0E92E79
:1013A000F12C89E9882E982CA82C89E1B82E5DCFE4
:1013B00091110C94E109803219F089508550C8F7D9
:1013C0000895992788270895F999FECF92BD81BD88
:1013D000F89A992780B50895DB018F939F930E9417
:1013E0001E0ABF91AF91A29F800D911DA39F900DEA
:1013F000B29F900D11240895A1E21A2EAA1BBB1BC7
:10140000FD010DC0AA1FBB1FEE1FFF1FA217B307D0
:10141000E407F50720F0A21BB30BE40BF50B661FE6
:10142000771F881F991F1A9469F7609570958095AA
:1014300090959B01AC01BD01CF0108950E94600A07
:10144000A59F900DB49F900DA49F800D911D112418
:1014500008952F923F924F925F926F927F928F9258
:101460009F92AF92BF92CF92DF92EF92FF920F9333
:101470001F93CF93DF93CDB7DEB7CA1BDB0B0FB63D
:10148000F894DEBF0FBECDBF09942A8839884888FA
:101490005F846E847D848C849B84AA84B984C88490
:1014A000DF80EE80FD800C811B81AA81B981CE0F87
:1014B000D11D0FB6F894DEBF0FBECDBFED0108956C
:1014C000A29FB001B39FC001A39F700D811D112485
:1014D000911DB29F700D811D1124911D0895EE0F75
:0E14E000FF1F0590F491E02D0994F894FFCFC2
:1014EE00454645463000000000008902F301200207
:1014FE00F10251022F0243020D0A0025253939202F
:10150E00524144494F204552524F5200252530300A
:10151E002C4F4B00252530312C00252530322C3117
:10152E002E322E3100436F6E766572746564206EB6
:10153E00756D6265723A2000252539302C4F4B00AF
:10154E00252539302C3F00252539382C002525300E
:06155E00322C4F4B00008F
:00000001FF
